{
  "contractName": "DrugValidation",
  "abi": [
    {
      "constant": true,
      "inputs": [],
      "name": "retailerCount",
      "outputs": [
        {
          "name": "",
          "type": "uint256"
        }
      ],
      "payable": false,
      "stateMutability": "view",
      "type": "function",
      "signature": "0x47c16a7f"
    },
    {
      "constant": true,
      "inputs": [],
      "name": "manufacturer",
      "outputs": [
        {
          "name": "",
          "type": "address"
        }
      ],
      "payable": false,
      "stateMutability": "view",
      "type": "function",
      "signature": "0x74754282"
    },
    {
      "constant": true,
      "inputs": [],
      "name": "drugCount",
      "outputs": [
        {
          "name": "",
          "type": "uint256"
        }
      ],
      "payable": false,
      "stateMutability": "view",
      "type": "function",
      "signature": "0x7577ca37"
    },
    {
      "constant": true,
      "inputs": [
        {
          "name": "",
          "type": "uint256"
        }
      ],
      "name": "retailers",
      "outputs": [
        {
          "name": "name",
          "type": "string"
        },
        {
          "name": "retailerAddress",
          "type": "address"
        }
      ],
      "payable": false,
      "stateMutability": "view",
      "type": "function",
      "signature": "0x897ec7df"
    },
    {
      "constant": true,
      "inputs": [
        {
          "name": "",
          "type": "uint256"
        }
      ],
      "name": "collectionLog",
      "outputs": [
        {
          "name": "collectionAddress",
          "type": "address"
        },
        {
          "name": "batchNumber",
          "type": "uint256"
        },
        {
          "name": "timestamp",
          "type": "string"
        }
      ],
      "payable": false,
      "stateMutability": "view",
      "type": "function",
      "signature": "0xa8113fa0"
    },
    {
      "constant": true,
      "inputs": [],
      "name": "collectionLogCount",
      "outputs": [
        {
          "name": "",
          "type": "uint256"
        }
      ],
      "payable": false,
      "stateMutability": "view",
      "type": "function",
      "signature": "0xbc8e600b"
    },
    {
      "constant": true,
      "inputs": [
        {
          "name": "",
          "type": "uint256"
        }
      ],
      "name": "drugs",
      "outputs": [
        {
          "name": "id",
          "type": "uint256"
        },
        {
          "name": "name",
          "type": "string"
        },
        {
          "name": "dosage",
          "type": "string"
        },
        {
          "name": "batchNumber",
          "type": "uint256"
        },
        {
          "name": "manufacturerAddress",
          "type": "address"
        },
        {
          "name": "recieved",
          "type": "bool"
        }
      ],
      "payable": false,
      "stateMutability": "view",
      "type": "function",
      "signature": "0xfca5e61e"
    },
    {
      "inputs": [],
      "payable": false,
      "stateMutability": "nonpayable",
      "type": "constructor",
      "signature": "constructor"
    },
    {
      "constant": false,
      "inputs": [
        {
          "name": "_name",
          "type": "string"
        },
        {
          "name": "_dosage",
          "type": "string"
        },
        {
          "name": "_batchNumber",
          "type": "uint256"
        }
      ],
      "name": "addDrug",
      "outputs": [],
      "payable": false,
      "stateMutability": "nonpayable",
      "type": "function",
      "signature": "0x91c4fb82"
    },
    {
      "constant": false,
      "inputs": [
        {
          "name": "_name",
          "type": "string"
        },
        {
          "name": "_address",
          "type": "address"
        }
      ],
      "name": "addRetailer",
      "outputs": [],
      "payable": false,
      "stateMutability": "nonpayable",
      "type": "function",
      "signature": "0x3dacf363"
    },
    {
      "constant": true,
      "inputs": [],
      "name": "confirmRetailer",
      "outputs": [
        {
          "name": "",
          "type": "bool"
        }
      ],
      "payable": false,
      "stateMutability": "view",
      "type": "function",
      "signature": "0x102f7eb7"
    },
    {
      "constant": false,
      "inputs": [
        {
          "name": "_batchNumber",
          "type": "uint256"
        },
        {
          "name": "_timestamp",
          "type": "string"
        }
      ],
      "name": "collectDrug",
      "outputs": [
        {
          "name": "",
          "type": "bool"
        }
      ],
      "payable": false,
      "stateMutability": "nonpayable",
      "type": "function",
      "signature": "0x82a2a9e2"
    },
    {
      "constant": true,
      "inputs": [
        {
          "name": "_batchNumber",
          "type": "uint256"
        }
      ],
      "name": "checkDrug",
      "outputs": [
        {
          "name": "",
          "type": "uint256"
        },
        {
          "name": "",
          "type": "string"
        },
        {
          "name": "",
          "type": "string"
        },
        {
          "name": "",
          "type": "uint256"
        },
        {
          "name": "",
          "type": "address"
        },
        {
          "name": "",
          "type": "bool"
        }
      ],
      "payable": false,
      "stateMutability": "view",
      "type": "function",
      "signature": "0xe15adabd"
    }
  ],
  "bytecode": "0x608060405234801561001057600080fd5b50336000806101000a81548173ffffffffffffffffffffffffffffffffffffffff021916908373ffffffffffffffffffffffffffffffffffffffff16021790555061171a806100606000396000f3fe6080604052600436106100ba576000357c0100000000000000000000000000000000000000000000000000000000900463ffffffff168063102f7eb7146100bf5780633dacf363146100ee57806347c16a7f146101d657806374754282146102015780637577ca371461025857806382a2a9e214610283578063897ec7df1461036d57806391c4fb8214610454578063a8113fa0146105bd578063bc8e600b146106ab578063e15adabd146106d6578063fca5e61e14610842575b600080fd5b3480156100cb57600080fd5b506100d46109ae565b604051808215151515815260200191505060405180910390f35b3480156100fa57600080fd5b506101d46004803603604081101561011157600080fd5b810190808035906020019064010000000081111561012e57600080fd5b82018360208201111561014057600080fd5b8035906020019184600183028401116401000000008311171561016257600080fd5b91908080601f016020809104026020016040519081016040528093929190818152602001838380828437600081840152601f19601f820116905080830192505050505050509192919290803573ffffffffffffffffffffffffffffffffffffffff169060200190929190505050610a4c565b005b3480156101e257600080fd5b506101eb610c63565b6040518082815260200191505060405180910390f35b34801561020d57600080fd5b50610216610c69565b604051808273ffffffffffffffffffffffffffffffffffffffff1673ffffffffffffffffffffffffffffffffffffffff16815260200191505060405180910390f35b34801561026457600080fd5b5061026d610c8e565b6040518082815260200191505060405180910390f35b34801561028f57600080fd5b50610353600480360360408110156102a657600080fd5b8101908080359060200190929190803590602001906401000000008111156102cd57600080fd5b8201836020820111156102df57600080fd5b8035906020019184600183028401116401000000008311171561030157600080fd5b91908080601f016020809104026020016040519081016040528093929190818152602001838380828437600081840152601f19601f820116905080830192505050505050509192919290505050610c94565b604051808215151515815260200191505060405180910390f35b34801561037957600080fd5b506103a66004803603602081101561039057600080fd5b8101908080359060200190929190505050610d30565b60405180806020018373ffffffffffffffffffffffffffffffffffffffff1673ffffffffffffffffffffffffffffffffffffffff168152602001828103825284818151815260200191508051906020019080838360005b838110156104185780820151818401526020810190506103fd565b50505050905090810190601f1680156104455780820380516001836020036101000a031916815260200191505b50935050505060405180910390f35b34801561046057600080fd5b506105bb6004803603606081101561047757600080fd5b810190808035906020019064010000000081111561049457600080fd5b8201836020820111156104a657600080fd5b803590602001918460018302840111640100000000831117156104c857600080fd5b91908080601f016020809104026020016040519081016040528093929190818152602001838380828437600081840152601f19601f8201169050808301925050505050505091929192908035906020019064010000000081111561052b57600080fd5b82018360208201111561053d57600080fd5b8035906020019184600183028401116401000000008311171561055f57600080fd5b91908080601f016020809104026020016040519081016040528093929190818152602001838380828437600081840152601f19601f82011690508083019250505050505050919291929080359060200190929190505050610e1b565b005b3480156105c957600080fd5b506105f6600480360360208110156105e057600080fd5b8101908080359060200190929190505050611056565b604051808473ffffffffffffffffffffffffffffffffffffffff1673ffffffffffffffffffffffffffffffffffffffff16815260200183815260200180602001828103825283818151815260200191508051906020019080838360005b8381101561066e578082015181840152602081019050610653565b50505050905090810190601f16801561069b5780820380516001836020036101000a031916815260200191505b5094505050505060405180910390f35b3480156106b757600080fd5b506106c0611138565b6040518082815260200191505060405180910390f35b3480156106e257600080fd5b5061070f600480360360208110156106f957600080fd5b810190808035906020019092919050505061113e565b6040518087815260200180602001806020018681526020018573ffffffffffffffffffffffffffffffffffffffff1673ffffffffffffffffffffffffffffffffffffffff16815260200184151515158152602001838103835288818151815260200191508051906020019080838360005b8381101561079b578082015181840152602081019050610780565b50505050905090810190601f1680156107c85780820380516001836020036101000a031916815260200191505b50838103825287818151815260200191508051906020019080838360005b838110156108015780820151818401526020810190506107e6565b50505050905090810190601f16801561082e5780820380516001836020036101000a031916815260200191505b509850505050505050505060405180910390f35b34801561084e57600080fd5b5061087b6004803603602081101561086557600080fd5b81019080803590602001909291905050506113d3565b6040518087815260200180602001806020018681526020018573ffffffffffffffffffffffffffffffffffffffff1673ffffffffffffffffffffffffffffffffffffffff16815260200184151515158152602001838103835288818151815260200191508051906020019080838360005b838110156109075780820151818401526020810190506108ec565b50505050905090810190601f1680156109345780820380516001836020036101000a031916815260200191505b50838103825287818151815260200191508051906020019080838360005b8381101561096d578082015181840152602081019050610952565b50505050905090810190601f16801561099a5780820380516001836020036101000a031916815260200191505b509850505050505050505060405180910390f35b60008060009050600454811015610a47573373ffffffffffffffffffffffffffffffffffffffff166001828154811015156109e557fe5b906000526020600020906002020160010160009054906101000a900473ffffffffffffffffffffffffffffffffffffffff1673ffffffffffffffffffffffffffffffffffffffff161415610a3d576001915050610a49565b6000915050610a49565b505b90565b6000600760006101000a81548160ff02191690831515021790555060008090505b600454811015610b18578173ffffffffffffffffffffffffffffffffffffffff16600182815481101515610a9d57fe5b906000526020600020906002020160010160009054906101000a900473ffffffffffffffffffffffffffffffffffffffff1673ffffffffffffffffffffffffffffffffffffffff161415610b0b576001600760006101000a81548160ff021916908315150217905550610b18565b8080600101915050610a6d565b506000809054906101000a900473ffffffffffffffffffffffffffffffffffffffff1673ffffffffffffffffffffffffffffffffffffffff163373ffffffffffffffffffffffffffffffffffffffff16148015610b88575060001515600760009054906101000a900460ff161515145b15610c5f57600460008154809291906001019190505550600160408051908101604052808481526020018373ffffffffffffffffffffffffffffffffffffffff16815250908060018154018082558091505090600182039060005260206000209060020201600090919290919091506000820151816000019080519060200190610c13929190611649565b5060208201518160010160006101000a81548173ffffffffffffffffffffffffffffffffffffffff021916908373ffffffffffffffffffffffffffffffffffffffff1602179055505050505b5050565b60045481565b6000809054906101000a900473ffffffffffffffffffffffffffffffffffffffff1681565b60055481565b600080600090505b600554811015610d285783600282815481101515610cb657fe5b9060005260206000209060050201600301541415610d1b576001600282815481101515610cdf57fe5b906000526020600020906005020160040160146101000a81548160ff021916908315150217905550610d11848461157b565b6001915050610d2a565b8080600101915050610c9c565b505b92915050565b600181815481101515610d3f57fe5b9060005260206000209060020201600091509050806000018054600181600116156101000203166002900480601f016020809104026020016040519081016040528092919081815260200182805460018160011615610100020316600290048015610deb5780601f10610dc057610100808354040283529160200191610deb565b820191906000526020600020905b815481529060010190602001808311610dce57829003601f168201915b5050505050908060010160009054906101000a900473ffffffffffffffffffffffffffffffffffffffff16905082565b6000600760006101000a81548160ff02191690831515021790555060008090505b600554811015610e9b5781600282815481101515610e5657fe5b9060005260206000209060050201600301541415610e8e576001600760006101000a81548160ff021916908315150217905550610e9b565b8080600101915050610e3c565b506000809054906101000a900473ffffffffffffffffffffffffffffffffffffffff1673ffffffffffffffffffffffffffffffffffffffff163373ffffffffffffffffffffffffffffffffffffffff16148015610f0b575060001515600760009054906101000a900460ff161515145b1561105157600560008154809291906001019190505550600260c06040519081016040528060055481526020018581526020018481526020018381526020013373ffffffffffffffffffffffffffffffffffffffff1681526020016000151581525090806001815401808255809150509060018203906000526020600020906005020160009091929091909150600082015181600001556020820151816001019080519060200190610fbe929190611649565b506040820151816002019080519060200190610fdb929190611649565b506060820151816003015560808201518160040160006101000a81548173ffffffffffffffffffffffffffffffffffffffff021916908373ffffffffffffffffffffffffffffffffffffffff16021790555060a08201518160040160146101000a81548160ff0219169083151502179055505050505b505050565b60036020528060005260406000206000915090508060000160009054906101000a900473ffffffffffffffffffffffffffffffffffffffff1690806001015490806002018054600181600116156101000203166002900480601f01602080910402602001604051908101604052809291908181526020018280546001816001161561010002031660029004801561112e5780601f106111035761010080835404028352916020019161112e565b820191906000526020600020905b81548152906001019060200180831161111157829003601f168201915b5050505050905083565b60065481565b6000606080600080600080600090505b6005548110156113c8578760028281548110151561116857fe5b90600052602060002090600502016003015414156113bb5760028181548110151561118f57fe5b9060005260206000209060050201600001546002828154811015156111b057fe5b90600052602060002090600502016001016002838154811015156111d057fe5b90600052602060002090600502016002016002848154811015156111f057fe5b90600052602060002090600502016003015460028581548110151561121157fe5b906000526020600020906005020160040160009054906101000a900473ffffffffffffffffffffffffffffffffffffffff1660028681548110151561125257fe5b906000526020600020906005020160040160149054906101000a900460ff16848054600181600116156101000203166002900480601f0160208091040260200160405190810160405280929190818152602001828054600181600116156101000203166002900480156113065780601f106112db57610100808354040283529160200191611306565b820191906000526020600020905b8154815290600101906020018083116112e957829003601f168201915b50505050509450838054600181600116156101000203166002900480601f0160208091040260200160405190810160405280929190818152602001828054600181600116156101000203166002900480156113a25780601f10611377576101008083540402835291602001916113a2565b820191906000526020600020905b81548152906001019060200180831161138557829003601f168201915b50505050509350965096509650965096509650506113ca565b808060010191505061114e565b505b91939550919395565b6002818154811015156113e257fe5b9060005260206000209060050201600091509050806000015490806001018054600181600116156101000203166002900480601f0160208091040260200160405190810160405280929190818152602001828054600181600116156101000203166002900480156114945780601f1061146957610100808354040283529160200191611494565b820191906000526020600020905b81548152906001019060200180831161147757829003601f168201915b505050505090806002018054600181600116156101000203166002900480601f0160208091040260200160405190810160405280929190818152602001828054600181600116156101000203166002900480156115325780601f1061150757610100808354040283529160200191611532565b820191906000526020600020905b81548152906001019060200180831161151557829003601f168201915b5050505050908060030154908060040160009054906101000a900473ffffffffffffffffffffffffffffffffffffffff16908060040160149054906101000a900460ff16905086565b6006600081548092919060010191905055506060604051908101604052803373ffffffffffffffffffffffffffffffffffffffff1681526020018381526020018281525060036000600654815260200190815260200160002060008201518160000160006101000a81548173ffffffffffffffffffffffffffffffffffffffff021916908373ffffffffffffffffffffffffffffffffffffffff160217905550602082015181600101556040820151816002019080519060200190611641929190611649565b509050505050565b828054600181600116156101000203166002900490600052602060002090601f016020900481019282601f1061168a57805160ff19168380011785556116b8565b828001600101855582156116b8579182015b828111156116b757825182559160200191906001019061169c565b5b5090506116c591906116c9565b5090565b6116eb91905b808211156116e75760008160009055506001016116cf565b5090565b9056fea165627a7a72305820ff0a33dc15f3f1eeaf56cadc02944fe6175af41916a54a83e32bf553cddc17780029",
  "source": "//version with retailers associative array that has uint as key\n\npragma solidity ^0.5.0;\n\ncontract DrugValidation {\n\n  address public manufacturer;\n\n  //Model the drug struct\n  struct Drug {\n    uint id;\n    string name;\n    string dosage;\n    uint batchNumber;\n    address manufacturerAddress;\n    bool recieved;\n  }\n\n  struct CollectionData {\n    address collectionAddress;\n    uint batchNumber;\n    string timestamp;\n  }\n\n  struct Retailer {\n    string name;\n    address retailerAddress;\n  }\n\n  // Associative arrays\n  Retailer[] public retailers;\n  Drug[] public drugs;\n  mapping (uint => CollectionData) public collectionLog;\n\n  //cache counters\n  uint public retailerCount;\n  uint public drugCount;\n  uint public collectionLogCount;\n\n  bool private checker;\n\n  constructor() public {\n    manufacturer = msg.sender;\n  }\n\n  //To add the drug data. Expects 3 arguments\n  function addDrug(string memory _name, string memory _dosage, uint _batchNumber) public {\n    checker = false;\n    for (uint i = 0; i < drugCount; i++) {\n      if( drugs[i].batchNumber == _batchNumber ){\n        checker = true;\n        break;\n      }\n    }\n\n    if (msg.sender == manufacturer && checker == false) {\n      drugCount++; //To increment the drug count by 1 everytime this function is called\n      drugs.push(Drug(drugCount, _name, _dosage, _batchNumber, msg.sender, false)); //adding the drug data to the array\n    }\n  }\n\n  function addRetailer(string memory _name, address _address) public {\n    checker = false;\n    for (uint i = 0; i < retailerCount; i++) {\n      if( retailers[i].retailerAddress == _address ){\n        checker = true;\n        break;\n      }\n    }\n\n    if (msg.sender == manufacturer && checker == false) {\n      retailerCount++;\n      retailers.push(Retailer(_name, _address));\n    }\n  }\n\n  function confirmRetailer() public view returns (bool) {\n    for(uint i = 0; i < retailerCount; i++){\n      if (retailers[i].retailerAddress == msg.sender) {\n        return true;\n        break;\n      }else {\n        return false;\n      }\n    }\n  }\n\n  function logCollection(uint _batchNumber, string memory _timestamp) private {\n    collectionLogCount++;\n    collectionLog[collectionLogCount] = CollectionData(msg.sender, _batchNumber, _timestamp);\n  }\n\n  function collectDrug(uint _batchNumber, string memory _timestamp ) public returns (bool) {\n    for (uint i = 0; i < drugCount; i++) {\n      if( drugs[i].batchNumber == _batchNumber ){\n        drugs[i].recieved = true;\n        logCollection(_batchNumber, _timestamp);\n        return true;\n        break;\n      }\n    }\n  }\n\n  function checkDrug(uint _batchNumber) public view returns(uint, string memory, string memory, uint, address, bool) {\n\n    for (uint i = 0; i < drugCount; i++) {\n      if( drugs[i].batchNumber == _batchNumber ){\n        return(drugs[i].id, drugs[i].name, drugs[i].dosage, drugs[i].batchNumber, drugs[i].manufacturerAddress, drugs[i].recieved);\n        break;\n      }\n    }\n  }\n\n//  function allDrugs() view public returns ()\n}\n",
  "sourcePath": "D:/projects/blockchain/Drugs/contracts/DrugValidation.sol",
  "compiler": {
    "name": "solc",
    "version": "0.5.0+commit.1d4f565a.Emscripten.clang"
  },
  "schemaVersion": "3.0.2",
  "updatedAt": "2019-03-07T00:47:15.313Z",
  "devdoc": {
    "methods": {}
  },
  "userdoc": {
    "methods": {}
  }
}