{
  "contractName": "DrugValidation",
  "abi": [
    {
      "constant": true,
      "inputs": [],
      "name": "retailerCount",
      "outputs": [
        {
          "name": "",
          "type": "uint256"
        }
      ],
      "payable": false,
      "stateMutability": "view",
      "type": "function",
      "signature": "0x47c16a7f"
    },
    {
      "constant": true,
      "inputs": [],
      "name": "manufacturer",
      "outputs": [
        {
          "name": "",
          "type": "address"
        }
      ],
      "payable": false,
      "stateMutability": "view",
      "type": "function",
      "signature": "0x74754282"
    },
    {
      "constant": true,
      "inputs": [],
      "name": "drugCount",
      "outputs": [
        {
          "name": "",
          "type": "uint256"
        }
      ],
      "payable": false,
      "stateMutability": "view",
      "type": "function",
      "signature": "0x7577ca37"
    },
    {
      "constant": true,
      "inputs": [
        {
          "name": "",
          "type": "uint256"
        }
      ],
      "name": "retailers",
      "outputs": [
        {
          "name": "name",
          "type": "string"
        },
        {
          "name": "retailerAddress",
          "type": "address"
        }
      ],
      "payable": false,
      "stateMutability": "view",
      "type": "function",
      "signature": "0x897ec7df"
    },
    {
      "constant": true,
      "inputs": [
        {
          "name": "",
          "type": "uint256"
        }
      ],
      "name": "collectionLog",
      "outputs": [
        {
          "name": "collectionAddress",
          "type": "address"
        },
        {
          "name": "batchNumber",
          "type": "uint256"
        },
        {
          "name": "timestamp",
          "type": "string"
        }
      ],
      "payable": false,
      "stateMutability": "view",
      "type": "function",
      "signature": "0xa8113fa0"
    },
    {
      "constant": true,
      "inputs": [],
      "name": "collectionLogCount",
      "outputs": [
        {
          "name": "",
          "type": "uint256"
        }
      ],
      "payable": false,
      "stateMutability": "view",
      "type": "function",
      "signature": "0xbc8e600b"
    },
    {
      "constant": true,
      "inputs": [
        {
          "name": "",
          "type": "uint256"
        }
      ],
      "name": "drugs",
      "outputs": [
        {
          "name": "id",
          "type": "uint256"
        },
        {
          "name": "name",
          "type": "string"
        },
        {
          "name": "dosage",
          "type": "string"
        },
        {
          "name": "batchNumber",
          "type": "uint256"
        },
        {
          "name": "manufacturerAddress",
          "type": "address"
        },
        {
          "name": "recieved",
          "type": "bool"
        }
      ],
      "payable": false,
      "stateMutability": "view",
      "type": "function",
      "signature": "0xfca5e61e"
    },
    {
      "inputs": [],
      "payable": false,
      "stateMutability": "nonpayable",
      "type": "constructor",
      "signature": "constructor"
    },
    {
      "constant": false,
      "inputs": [
        {
          "name": "_name",
          "type": "string"
        },
        {
          "name": "_dosage",
          "type": "string"
        },
        {
          "name": "_batchNumber",
          "type": "uint256"
        }
      ],
      "name": "addDrug",
      "outputs": [],
      "payable": false,
      "stateMutability": "nonpayable",
      "type": "function",
      "signature": "0x91c4fb82"
    },
    {
      "constant": false,
      "inputs": [
        {
          "name": "_name",
          "type": "string"
        },
        {
          "name": "_address",
          "type": "address"
        }
      ],
      "name": "addRetailer",
      "outputs": [],
      "payable": false,
      "stateMutability": "nonpayable",
      "type": "function",
      "signature": "0x3dacf363"
    },
    {
      "constant": false,
      "inputs": [
        {
          "name": "_batchNumber",
          "type": "uint256"
        },
        {
          "name": "_timestamp",
          "type": "string"
        }
      ],
      "name": "collectDrug",
      "outputs": [
        {
          "name": "",
          "type": "bool"
        }
      ],
      "payable": false,
      "stateMutability": "nonpayable",
      "type": "function",
      "signature": "0x82a2a9e2"
    },
    {
      "constant": true,
      "inputs": [
        {
          "name": "_batchNumber",
          "type": "uint256"
        }
      ],
      "name": "checkDrug",
      "outputs": [
        {
          "name": "",
          "type": "uint256"
        },
        {
          "name": "",
          "type": "string"
        },
        {
          "name": "",
          "type": "string"
        },
        {
          "name": "",
          "type": "uint256"
        },
        {
          "name": "",
          "type": "address"
        },
        {
          "name": "",
          "type": "bool"
        }
      ],
      "payable": false,
      "stateMutability": "view",
      "type": "function",
      "signature": "0xe15adabd"
    }
  ],
  "bytecode": "0x608060405234801561001057600080fd5b50336000806101000a81548173ffffffffffffffffffffffffffffffffffffffff021916908373ffffffffffffffffffffffffffffffffffffffff1602179055506114cb806100606000396000f3fe6080604052600436106100af576000357c0100000000000000000000000000000000000000000000000000000000900463ffffffff1680633dacf363146100b457806347c16a7f1461019c57806374754282146101c75780637577ca371461021e57806382a2a9e214610249578063897ec7df1461033357806391c4fb821461041a578063a8113fa014610583578063bc8e600b14610671578063e15adabd1461069c578063fca5e61e14610808575b600080fd5b3480156100c057600080fd5b5061019a600480360360408110156100d757600080fd5b81019080803590602001906401000000008111156100f457600080fd5b82018360208201111561010657600080fd5b8035906020019184600183028401116401000000008311171561012857600080fd5b91908080601f016020809104026020016040519081016040528093929190818152602001838380828437600081840152601f19601f820116905080830192505050505050509192919290803573ffffffffffffffffffffffffffffffffffffffff169060200190929190505050610974565b005b3480156101a857600080fd5b506101b1610a31565b6040518082815260200191505060405180910390f35b3480156101d357600080fd5b506101dc610a37565b604051808273ffffffffffffffffffffffffffffffffffffffff1673ffffffffffffffffffffffffffffffffffffffff16815260200191505060405180910390f35b34801561022a57600080fd5b50610233610a5c565b6040518082815260200191505060405180910390f35b34801561025557600080fd5b506103196004803603604081101561026c57600080fd5b81019080803590602001909291908035906020019064010000000081111561029357600080fd5b8201836020820111156102a557600080fd5b803590602001918460018302840111640100000000831117156102c757600080fd5b91908080601f016020809104026020016040519081016040528093929190818152602001838380828437600081840152601f19601f820116905080830192505050505050509192919290505050610a62565b604051808215151515815260200191505060405180910390f35b34801561033f57600080fd5b5061036c6004803603602081101561035657600080fd5b8101908080359060200190929190505050610af4565b60405180806020018373ffffffffffffffffffffffffffffffffffffffff1673ffffffffffffffffffffffffffffffffffffffff168152602001828103825284818151815260200191508051906020019080838360005b838110156103de5780820151818401526020810190506103c3565b50505050905090810190601f16801561040b5780820380516001836020036101000a031916815260200191505b50935050505060405180910390f35b34801561042657600080fd5b506105816004803603606081101561043d57600080fd5b810190808035906020019064010000000081111561045a57600080fd5b82018360208201111561046c57600080fd5b8035906020019184600183028401116401000000008311171561048e57600080fd5b91908080601f016020809104026020016040519081016040528093929190818152602001838380828437600081840152601f19601f820116905080830192505050505050509192919290803590602001906401000000008111156104f157600080fd5b82018360208201111561050357600080fd5b8035906020019184600183028401116401000000008311171561052557600080fd5b91908080601f016020809104026020016040519081016040528093929190818152602001838380828437600081840152601f19601f82011690508083019250505050505050919291929080359060200190929190505050610bd0565b005b34801561058f57600080fd5b506105bc600480360360208110156105a657600080fd5b8101908080359060200190929190505050610e07565b604051808473ffffffffffffffffffffffffffffffffffffffff1673ffffffffffffffffffffffffffffffffffffffff16815260200183815260200180602001828103825283818151815260200191508051906020019080838360005b83811015610634578082015181840152602081019050610619565b50505050905090810190601f1680156106615780820380516001836020036101000a031916815260200191505b5094505050505060405180910390f35b34801561067d57600080fd5b50610686610ee9565b6040518082815260200191505060405180910390f35b3480156106a857600080fd5b506106d5600480360360208110156106bf57600080fd5b8101908080359060200190929190505050610eef565b6040518087815260200180602001806020018681526020018573ffffffffffffffffffffffffffffffffffffffff1673ffffffffffffffffffffffffffffffffffffffff16815260200184151515158152602001838103835288818151815260200191508051906020019080838360005b83811015610761578082015181840152602081019050610746565b50505050905090810190601f16801561078e5780820380516001836020036101000a031916815260200191505b50838103825287818151815260200191508051906020019080838360005b838110156107c75780820151818401526020810190506107ac565b50505050905090810190601f1680156107f45780820380516001836020036101000a031916815260200191505b509850505050505050505060405180910390f35b34801561081457600080fd5b506108416004803603602081101561082b57600080fd5b8101908080359060200190929190505050611184565b6040518087815260200180602001806020018681526020018573ffffffffffffffffffffffffffffffffffffffff1673ffffffffffffffffffffffffffffffffffffffff16815260200184151515158152602001838103835288818151815260200191508051906020019080838360005b838110156108cd5780820151818401526020810190506108b2565b50505050905090810190601f1680156108fa5780820380516001836020036101000a031916815260200191505b50838103825287818151815260200191508051906020019080838360005b83811015610933578082015181840152602081019050610918565b50505050905090810190601f1680156109605780820380516001836020036101000a031916815260200191505b509850505050505050505060405180910390f35b60046000815480929190600101919050555060408051908101604052808381526020018273ffffffffffffffffffffffffffffffffffffffff1681525060016000600454815260200190815260200160002060008201518160000190805190602001906109e29291906113fa565b5060208201518160010160006101000a81548173ffffffffffffffffffffffffffffffffffffffff021916908373ffffffffffffffffffffffffffffffffffffffff1602179055509050505050565b60045481565b6000809054906101000a900473ffffffffffffffffffffffffffffffffffffffff1681565b60055481565b600080600090505b600554811015610aed5783600282815481101515610a8457fe5b9060005260206000209060050201600301541415610ae0576001600282815481101515610aad57fe5b906000526020600020906005020160040160146101000a81548160ff021916908315150217905550610adf848461132c565b5b8080600101915050610a6a565b5092915050565b6001602052806000526040600020600091509050806000018054600181600116156101000203166002900480601f016020809104026020016040519081016040528092919081815260200182805460018160011615610100020316600290048015610ba05780601f10610b7557610100808354040283529160200191610ba0565b820191906000526020600020905b815481529060010190602001808311610b8357829003601f168201915b5050505050908060010160009054906101000a900473ffffffffffffffffffffffffffffffffffffffff16905082565b6000600760006101000a81548160ff02191690831515021790555060008090505b600554811015610c4c5781600282815481101515610c0b57fe5b9060005260206000209060050201600301541415610c3f576001600760006101000a81548160ff0219169083151502179055505b8080600101915050610bf1565b506000809054906101000a900473ffffffffffffffffffffffffffffffffffffffff1673ffffffffffffffffffffffffffffffffffffffff163373ffffffffffffffffffffffffffffffffffffffff16148015610cbc575060001515600760009054906101000a900460ff161515145b15610e0257600560008154809291906001019190505550600260c06040519081016040528060055481526020018581526020018481526020018381526020013373ffffffffffffffffffffffffffffffffffffffff1681526020016000151581525090806001815401808255809150509060018203906000526020600020906005020160009091929091909150600082015181600001556020820151816001019080519060200190610d6f9291906113fa565b506040820151816002019080519060200190610d8c9291906113fa565b506060820151816003015560808201518160040160006101000a81548173ffffffffffffffffffffffffffffffffffffffff021916908373ffffffffffffffffffffffffffffffffffffffff16021790555060a08201518160040160146101000a81548160ff0219169083151502179055505050505b505050565b60036020528060005260406000206000915090508060000160009054906101000a900473ffffffffffffffffffffffffffffffffffffffff1690806001015490806002018054600181600116156101000203166002900480601f016020809104026020016040519081016040528092919081815260200182805460018160011615610100020316600290048015610edf5780601f10610eb457610100808354040283529160200191610edf565b820191906000526020600020905b815481529060010190602001808311610ec257829003601f168201915b5050505050905083565b60065481565b6000606080600080600080600090505b6005548110156111795787600282815481101515610f1957fe5b906000526020600020906005020160030154141561116c57600281815481101515610f4057fe5b906000526020600020906005020160000154600282815481101515610f6157fe5b9060005260206000209060050201600101600283815481101515610f8157fe5b9060005260206000209060050201600201600284815481101515610fa157fe5b906000526020600020906005020160030154600285815481101515610fc257fe5b906000526020600020906005020160040160009054906101000a900473ffffffffffffffffffffffffffffffffffffffff1660028681548110151561100357fe5b906000526020600020906005020160040160149054906101000a900460ff16848054600181600116156101000203166002900480601f0160208091040260200160405190810160405280929190818152602001828054600181600116156101000203166002900480156110b75780601f1061108c576101008083540402835291602001916110b7565b820191906000526020600020905b81548152906001019060200180831161109a57829003601f168201915b50505050509450838054600181600116156101000203166002900480601f0160208091040260200160405190810160405280929190818152602001828054600181600116156101000203166002900480156111535780601f1061112857610100808354040283529160200191611153565b820191906000526020600020905b81548152906001019060200180831161113657829003601f168201915b505050505093509650965096509650965096505061117b565b8080600101915050610eff565b505b91939550919395565b60028181548110151561119357fe5b9060005260206000209060050201600091509050806000015490806001018054600181600116156101000203166002900480601f0160208091040260200160405190810160405280929190818152602001828054600181600116156101000203166002900480156112455780601f1061121a57610100808354040283529160200191611245565b820191906000526020600020905b81548152906001019060200180831161122857829003601f168201915b505050505090806002018054600181600116156101000203166002900480601f0160208091040260200160405190810160405280929190818152602001828054600181600116156101000203166002900480156112e35780601f106112b8576101008083540402835291602001916112e3565b820191906000526020600020905b8154815290600101906020018083116112c657829003601f168201915b5050505050908060030154908060040160009054906101000a900473ffffffffffffffffffffffffffffffffffffffff16908060040160149054906101000a900460ff16905086565b6006600081548092919060010191905055506060604051908101604052803373ffffffffffffffffffffffffffffffffffffffff1681526020018381526020018281525060036000600654815260200190815260200160002060008201518160000160006101000a81548173ffffffffffffffffffffffffffffffffffffffff021916908373ffffffffffffffffffffffffffffffffffffffff1602179055506020820151816001015560408201518160020190805190602001906113f29291906113fa565b509050505050565b828054600181600116156101000203166002900490600052602060002090601f016020900481019282601f1061143b57805160ff1916838001178555611469565b82800160010185558215611469579182015b8281111561146857825182559160200191906001019061144d565b5b509050611476919061147a565b5090565b61149c91905b80821115611498576000816000905550600101611480565b5090565b9056fea165627a7a72305820c055c20039cd1e8db644d82ce32de2f667c8797f585c64bcf19a0f4ad263e7c60029",
  "source": "//version with retailers associative array that has uint as key\n\npragma solidity ^0.5.0;\n\ncontract DrugValidation {\n\n  address public manufacturer;\n\n  //Model the drug struct\n  struct Drug {\n    uint id;\n    string name;\n    string dosage;\n    uint batchNumber;\n    address manufacturerAddress;\n    bool recieved;\n  }\n\n  struct CollectionData {\n    address collectionAddress;\n    uint batchNumber;\n    string timestamp;\n  }\n\n  struct Retailer {\n    string name;\n    address retailerAddress;\n  }\n\n  // Associative arrays\n  mapping (uint => Retailer) public retailers;\n  Drug[] public drugs;\n  mapping (uint => CollectionData) public collectionLog;\n\n  //cache counters\n  uint public retailerCount;\n  uint public drugCount;\n  uint public collectionLogCount;\n\n  bool private checker;\n\n  constructor() public {\n    manufacturer = msg.sender;\n  }\n\n  //To add the drug data. Expects 3 arguments\n  function addDrug(string memory _name, string memory _dosage, uint _batchNumber) public {\n    checker = false;\n    for (uint i = 0; i < drugCount; i++) {\n      if( drugs[i].batchNumber == _batchNumber ){\n        checker = true;\n      }\n    }\n\n    if (msg.sender == manufacturer && checker == false) {\n      drugCount++; //To increment the drug count by 1 everytime this function is called\n      drugs.push(Drug(drugCount, _name, _dosage, _batchNumber, msg.sender, false)); //adding the drug data to the array\n    }\n  }\n\n  function addRetailer(string memory _name, address _address) public {\n    retailerCount++;\n    retailers[retailerCount] = Retailer(_name, _address);\n  }\n\n  function logCollection(uint _batchNumber, string memory _timestamp) private {\n    collectionLogCount++;\n    collectionLog[collectionLogCount] = CollectionData(msg.sender, _batchNumber, _timestamp);\n  }\n\n  function collectDrug(uint _batchNumber, string memory _timestamp ) public returns (bool) {\n    for (uint i = 0; i < drugCount; i++) {\n      if( drugs[i].batchNumber == _batchNumber ){\n        drugs[i].recieved = true;\n        logCollection(_batchNumber, _timestamp);\n      }\n    }\n  }\n\n  function checkDrug(uint _batchNumber) public view returns(uint, string memory, string memory, uint, address, bool) {\n\n    for (uint i = 0; i < drugCount; i++) {\n      if( drugs[i].batchNumber == _batchNumber ){\n        return(drugs[i].id, drugs[i].name, drugs[i].dosage, drugs[i].batchNumber, drugs[i].manufacturerAddress, drugs[i].recieved);\n      }\n    }\n  }\n\n//  function allDrugs() view public returns ()\n}\n",
  "sourcePath": "D:/projects/blockchain/Drugs/contracts/DrugValidation.sol",
  "compiler": {
    "name": "solc",
    "version": "0.5.0+commit.1d4f565a.Emscripten.clang"
  },
  "schemaVersion": "3.0.2",
  "updatedAt": "2019-03-06T09:15:19.483Z",
  "devdoc": {
    "methods": {}
  },
  "userdoc": {
    "methods": {}
  }
}