{
  "contractName": "DrugValidation",
  "abi": [
    {
      "constant": true,
      "inputs": [],
      "name": "batchCount",
      "outputs": [
        {
          "name": "",
          "type": "uint256"
        }
      ],
      "payable": false,
      "stateMutability": "view",
      "type": "function",
      "signature": "0x06f13056"
    },
    {
      "constant": true,
      "inputs": [],
      "name": "userCount",
      "outputs": [
        {
          "name": "",
          "type": "uint256"
        }
      ],
      "payable": false,
      "stateMutability": "view",
      "type": "function",
      "signature": "0x07973ccf"
    },
    {
      "constant": true,
      "inputs": [
        {
          "name": "",
          "type": "uint256"
        }
      ],
      "name": "users",
      "outputs": [
        {
          "name": "name",
          "type": "string"
        },
        {
          "name": "userAddress",
          "type": "address"
        },
        {
          "name": "accountPriviledge",
          "type": "uint256"
        },
        {
          "name": "addedBy",
          "type": "address"
        }
      ],
      "payable": false,
      "stateMutability": "view",
      "type": "function",
      "signature": "0x365b98b2"
    },
    {
      "constant": true,
      "inputs": [],
      "name": "drugCount",
      "outputs": [
        {
          "name": "",
          "type": "uint256"
        }
      ],
      "payable": false,
      "stateMutability": "view",
      "type": "function",
      "signature": "0x7577ca37"
    },
    {
      "constant": true,
      "inputs": [],
      "name": "logCount",
      "outputs": [
        {
          "name": "",
          "type": "uint256"
        }
      ],
      "payable": false,
      "stateMutability": "view",
      "type": "function",
      "signature": "0xa503898f"
    },
    {
      "constant": true,
      "inputs": [
        {
          "name": "",
          "type": "uint256"
        }
      ],
      "name": "collectionLog",
      "outputs": [
        {
          "name": "collectionAddress",
          "type": "address"
        },
        {
          "name": "batchNumber",
          "type": "uint256"
        },
        {
          "name": "timestamp",
          "type": "string"
        },
        {
          "name": "manufacturerAddress",
          "type": "address"
        }
      ],
      "payable": false,
      "stateMutability": "view",
      "type": "function",
      "signature": "0xa8113fa0"
    },
    {
      "constant": true,
      "inputs": [
        {
          "name": "",
          "type": "uint256"
        }
      ],
      "name": "batches",
      "outputs": [
        {
          "name": "batchNumber",
          "type": "uint256"
        },
        {
          "name": "name",
          "type": "string"
        },
        {
          "name": "dosage",
          "type": "string"
        },
        {
          "name": "manufacturerAddress",
          "type": "address"
        },
        {
          "name": "recieved",
          "type": "bool"
        }
      ],
      "payable": false,
      "stateMutability": "view",
      "type": "function",
      "signature": "0xb32c4d8d"
    },
    {
      "constant": true,
      "inputs": [
        {
          "name": "",
          "type": "uint256"
        }
      ],
      "name": "drugs",
      "outputs": [
        {
          "name": "id",
          "type": "uint256"
        },
        {
          "name": "name",
          "type": "string"
        },
        {
          "name": "dosage",
          "type": "string"
        },
        {
          "name": "batchNumber",
          "type": "uint256"
        },
        {
          "name": "drugNumber",
          "type": "uint256"
        },
        {
          "name": "manufacturerAddress",
          "type": "address"
        }
      ],
      "payable": false,
      "stateMutability": "view",
      "type": "function",
      "signature": "0xfca5e61e"
    },
    {
      "inputs": [],
      "payable": false,
      "stateMutability": "nonpayable",
      "type": "constructor",
      "signature": "constructor"
    },
    {
      "constant": true,
      "inputs": [],
      "name": "whichUser",
      "outputs": [
        {
          "name": "",
          "type": "uint256"
        }
      ],
      "payable": false,
      "stateMutability": "view",
      "type": "function",
      "signature": "0x8c5ff28e"
    },
    {
      "constant": false,
      "inputs": [
        {
          "name": "_name",
          "type": "string"
        },
        {
          "name": "_dosage",
          "type": "string"
        },
        {
          "name": "_batchNumber",
          "type": "uint256"
        }
      ],
      "name": "addDrug",
      "outputs": [],
      "payable": false,
      "stateMutability": "nonpayable",
      "type": "function",
      "signature": "0x91c4fb82"
    },
    {
      "constant": false,
      "inputs": [
        {
          "name": "_name",
          "type": "string"
        },
        {
          "name": "_dosage",
          "type": "string"
        },
        {
          "name": "_batchNumber",
          "type": "uint256"
        },
        {
          "name": "_amount",
          "type": "uint256"
        }
      ],
      "name": "addDrugBatch",
      "outputs": [],
      "payable": false,
      "stateMutability": "nonpayable",
      "type": "function",
      "signature": "0xd457cf1d"
    },
    {
      "constant": false,
      "inputs": [
        {
          "name": "_name",
          "type": "string"
        },
        {
          "name": "_address",
          "type": "address"
        },
        {
          "name": "_level",
          "type": "uint256"
        }
      ],
      "name": "addUser",
      "outputs": [],
      "payable": false,
      "stateMutability": "nonpayable",
      "type": "function",
      "signature": "0x0ce98442"
    },
    {
      "constant": true,
      "inputs": [],
      "name": "confirmRetailer",
      "outputs": [
        {
          "name": "",
          "type": "bool"
        }
      ],
      "payable": false,
      "stateMutability": "view",
      "type": "function",
      "signature": "0x102f7eb7"
    },
    {
      "constant": false,
      "inputs": [
        {
          "name": "_batchNumber",
          "type": "uint256"
        },
        {
          "name": "_timestamp",
          "type": "string"
        }
      ],
      "name": "collectDrug",
      "outputs": [],
      "payable": false,
      "stateMutability": "nonpayable",
      "type": "function",
      "signature": "0x82a2a9e2"
    },
    {
      "constant": false,
      "inputs": [
        {
          "name": "_batchNumber",
          "type": "uint256"
        },
        {
          "name": "_timestamp",
          "type": "string"
        }
      ],
      "name": "collectDrugBatch",
      "outputs": [],
      "payable": false,
      "stateMutability": "nonpayable",
      "type": "function",
      "signature": "0x3c0ccd1d"
    },
    {
      "constant": true,
      "inputs": [
        {
          "name": "_batchNumber",
          "type": "uint256"
        }
      ],
      "name": "callLog",
      "outputs": [
        {
          "name": "",
          "type": "address"
        },
        {
          "name": "",
          "type": "string"
        },
        {
          "name": "",
          "type": "string"
        }
      ],
      "payable": false,
      "stateMutability": "view",
      "type": "function",
      "signature": "0xeadbe66b"
    },
    {
      "constant": true,
      "inputs": [
        {
          "name": "_drugNumber",
          "type": "uint256"
        }
      ],
      "name": "checkDrug",
      "outputs": [
        {
          "name": "",
          "type": "uint256"
        },
        {
          "name": "",
          "type": "string"
        },
        {
          "name": "",
          "type": "string"
        },
        {
          "name": "",
          "type": "uint256"
        },
        {
          "name": "",
          "type": "uint256"
        },
        {
          "name": "",
          "type": "address"
        },
        {
          "name": "",
          "type": "bool"
        }
      ],
      "payable": false,
      "stateMutability": "view",
      "type": "function",
      "signature": "0xe15adabd"
    },
    {
      "constant": true,
      "inputs": [
        {
          "name": "_batchNumber",
          "type": "uint256"
        }
      ],
      "name": "checkDrugByBatch",
      "outputs": [
        {
          "name": "",
          "type": "uint256"
        },
        {
          "name": "",
          "type": "string"
        },
        {
          "name": "",
          "type": "string"
        },
        {
          "name": "",
          "type": "address"
        },
        {
          "name": "",
          "type": "bool"
        }
      ],
      "payable": false,
      "stateMutability": "view",
      "type": "function",
      "signature": "0x1a404e87"
    }
  ],
  "bytecode": "0x60806040523480156200001157600080fd5b5060046000815480929190600101919050555060006080604051908101604052806040805190810160405280600581526020017f4f776e657200000000000000000000000000000000000000000000000000000081525081526020013373ffffffffffffffffffffffffffffffffffffffff168152602001600381526020013373ffffffffffffffffffffffffffffffffffffffff16815250908060018154018082558091505090600182039060005260206000209060040201600090919290919091506000820151816000019080519060200190620000f392919062000195565b5060208201518160010160006101000a81548173ffffffffffffffffffffffffffffffffffffffff021916908373ffffffffffffffffffffffffffffffffffffffff1602179055506040820151816002015560608201518160030160006101000a81548173ffffffffffffffffffffffffffffffffffffffff021916908373ffffffffffffffffffffffffffffffffffffffff16021790555050505062000244565b828054600181600116156101000203166002900490600052602060002090601f016020900481019282601f10620001d857805160ff191683800117855562000209565b8280016001018555821562000209579182015b8281111562000208578251825591602001919060010190620001eb565b5b5090506200021891906200021c565b5090565b6200024191905b808211156200023d57600081600090555060010162000223565b5090565b90565b612d6780620002546000396000f3fe6080604052600436106100fc576000357c0100000000000000000000000000000000000000000000000000000000900463ffffffff16806306f130561461010157806307973ccf1461012c5780630ce9844214610157578063102f7eb7146102495780631a404e8714610278578063365b98b2146103dd5780633c0ccd1d146104fe5780637577ca37146105d057806382a2a9e2146105fb5780638c5ff28e146106cd57806391c4fb82146106f8578063a503898f14610861578063a8113fa01461088c578063b32c4d8d146109ad578063d457cf1d14610b12578063e15adabd14610c85578063eadbe66b14610df8578063fca5e61e14610f4b575b600080fd5b34801561010d57600080fd5b506101166110b3565b6040518082815260200191505060405180910390f35b34801561013857600080fd5b506101416110b9565b6040518082815260200191505060405180910390f35b34801561016357600080fd5b506102476004803603606081101561017a57600080fd5b810190808035906020019064010000000081111561019757600080fd5b8201836020820111156101a957600080fd5b803590602001918460018302840111640100000000831117156101cb57600080fd5b91908080601f016020809104026020016040519081016040528093929190818152602001838380828437600081840152601f19601f820116905080830192505050505050509192919290803573ffffffffffffffffffffffffffffffffffffffff169060200190929190803590602001909291905050506110bf565b005b34801561025557600080fd5b5061025e6112d0565b604051808215151515815260200191505060405180910390f35b34801561028457600080fd5b506102b16004803603602081101561029b57600080fd5b81019080803590602001909291905050506112f9565b6040518086815260200180602001806020018573ffffffffffffffffffffffffffffffffffffffff1673ffffffffffffffffffffffffffffffffffffffff16815260200184151515158152602001838103835287818151815260200191508051906020019080838360005b8381101561033757808201518184015260208101905061031c565b50505050905090810190601f1680156103645780820380516001836020036101000a031916815260200191505b50838103825286818151815260200191508051906020019080838360005b8381101561039d578082015181840152602081019050610382565b50505050905090810190601f1680156103ca5780820380516001836020036101000a031916815260200191505b5097505050505050505060405180910390f35b3480156103e957600080fd5b506104166004803603602081101561040057600080fd5b81019080803590602001909291905050506116c1565b60405180806020018573ffffffffffffffffffffffffffffffffffffffff1673ffffffffffffffffffffffffffffffffffffffff1681526020018481526020018373ffffffffffffffffffffffffffffffffffffffff1673ffffffffffffffffffffffffffffffffffffffff168152602001828103825286818151815260200191508051906020019080838360005b838110156104c05780820151818401526020810190506104a5565b50505050905090810190601f1680156104ed5780820380516001836020036101000a031916815260200191505b509550505050505060405180910390f35b34801561050a57600080fd5b506105ce6004803603604081101561052157600080fd5b81019080803590602001909291908035906020019064010000000081111561054857600080fd5b82018360208201111561055a57600080fd5b8035906020019184600183028401116401000000008311171561057c57600080fd5b91908080601f016020809104026020016040519081016040528093929190818152602001838380828437600081840152601f19601f8201169050808301925050505050505091929192905050506117d8565b005b3480156105dc57600080fd5b506105e56118c7565b6040518082815260200191505060405180910390f35b34801561060757600080fd5b506106cb6004803603604081101561061e57600080fd5b81019080803590602001909291908035906020019064010000000081111561064557600080fd5b82018360208201111561065757600080fd5b8035906020019184600183028401116401000000008311171561067957600080fd5b91908080601f016020809104026020016040519081016040528093929190818152602001838380828437600081840152601f19601f8201169050808301925050505050505091929192905050506118cd565b005b3480156106d957600080fd5b506106e26119a0565b6040518082815260200191505060405180910390f35b34801561070457600080fd5b5061085f6004803603606081101561071b57600080fd5b810190808035906020019064010000000081111561073857600080fd5b82018360208201111561074a57600080fd5b8035906020019184600183028401116401000000008311171561076c57600080fd5b91908080601f016020809104026020016040519081016040528093929190818152602001838380828437600081840152601f19601f820116905080830192505050505050509192919290803590602001906401000000008111156107cf57600080fd5b8201836020820111156107e157600080fd5b8035906020019184600183028401116401000000008311171561080357600080fd5b91908080601f016020809104026020016040519081016040528093929190818152602001838380828437600081840152601f19601f82011690508083019250505050505050919291929080359060200190929190505050611a68565b005b34801561086d57600080fd5b50610876611d4a565b6040518082815260200191505060405180910390f35b34801561089857600080fd5b506108c5600480360360208110156108af57600080fd5b8101908080359060200190929190505050611d50565b604051808573ffffffffffffffffffffffffffffffffffffffff1673ffffffffffffffffffffffffffffffffffffffff168152602001848152602001806020018373ffffffffffffffffffffffffffffffffffffffff1673ffffffffffffffffffffffffffffffffffffffff168152602001828103825284818151815260200191508051906020019080838360005b8381101561096f578082015181840152602081019050610954565b50505050905090810190601f16801561099c5780820380516001836020036101000a031916815260200191505b509550505050505060405180910390f35b3480156109b957600080fd5b506109e6600480360360208110156109d057600080fd5b8101908080359060200190929190505050611e67565b6040518086815260200180602001806020018573ffffffffffffffffffffffffffffffffffffffff1673ffffffffffffffffffffffffffffffffffffffff16815260200184151515158152602001838103835287818151815260200191508051906020019080838360005b83811015610a6c578082015181840152602081019050610a51565b50505050905090810190601f168015610a995780820380516001836020036101000a031916815260200191505b50838103825286818151815260200191508051906020019080838360005b83811015610ad2578082015181840152602081019050610ab7565b50505050905090810190601f168015610aff5780820380516001836020036101000a031916815260200191505b5097505050505050505060405180910390f35b348015610b1e57600080fd5b50610c8360048036036080811015610b3557600080fd5b8101908080359060200190640100000000811115610b5257600080fd5b820183602082011115610b6457600080fd5b80359060200191846001830284011164010000000083111715610b8657600080fd5b91908080601f016020809104026020016040519081016040528093929190818152602001838380828437600081840152601f19601f82011690508083019250505050505050919291929080359060200190640100000000811115610be957600080fd5b820183602082011115610bfb57600080fd5b80359060200191846001830284011164010000000083111715610c1d57600080fd5b91908080601f016020809104026020016040519081016040528093929190818152602001838380828437600081840152601f19601f8201169050808301925050505050505091929192908035906020019092919080359060200190929190505050612009565b005b348015610c9157600080fd5b50610cbe60048036036020811015610ca857600080fd5b810190808035906020019092919050505061230b565b6040518088815260200180602001806020018781526020018681526020018573ffffffffffffffffffffffffffffffffffffffff1673ffffffffffffffffffffffffffffffffffffffff16815260200184151515158152602001838103835289818151815260200191508051906020019080838360005b83811015610d50578082015181840152602081019050610d35565b50505050905090810190601f168015610d7d5780820380516001836020036101000a031916815260200191505b50838103825288818151815260200191508051906020019080838360005b83811015610db6578082015181840152602081019050610d9b565b50505050905090810190601f168015610de35780820380516001836020036101000a031916815260200191505b50995050505050505050505060405180910390f35b348015610e0457600080fd5b50610e3160048036036020811015610e1b57600080fd5b810190808035906020019092919050505061264a565b604051808473ffffffffffffffffffffffffffffffffffffffff1673ffffffffffffffffffffffffffffffffffffffff1681526020018060200180602001838103835285818151815260200191508051906020019080838360005b83811015610ea7578082015181840152602081019050610e8c565b50505050905090810190601f168015610ed45780820380516001836020036101000a031916815260200191505b50838103825284818151815260200191508051906020019080838360005b83811015610f0d578082015181840152602081019050610ef2565b50505050905090810190601f168015610f3a5780820380516001836020036101000a031916815260200191505b509550505050505060405180910390f35b348015610f5757600080fd5b50610f8460048036036020811015610f6e57600080fd5b81019080803590602001909291905050506129b1565b6040518087815260200180602001806020018681526020018581526020018473ffffffffffffffffffffffffffffffffffffffff1673ffffffffffffffffffffffffffffffffffffffff168152602001838103835288818151815260200191508051906020019080838360005b8381101561100c578082015181840152602081019050610ff1565b50505050905090810190601f1680156110395780820380516001836020036101000a031916815260200191505b50838103825287818151815260200191508051906020019080838360005b83811015611072578082015181840152602081019050611057565b50505050905090810190601f16801561109f5780820380516001836020036101000a031916815260200191505b509850505050505050505060405180910390f35b60075481565b60045481565b60008060009150600090506110d26119a0565b915060008090505b60045481101561116e578473ffffffffffffffffffffffffffffffffffffffff1660008281548110151561110a57fe5b906000526020600020906004020160010160009054906101000a900473ffffffffffffffffffffffffffffffffffffffff1673ffffffffffffffffffffffffffffffffffffffff161415611161576001915061116e565b80806001019150506110da565b506002821015801561117e575080155b156112c95760046000815480929190600101919050555060006080604051908101604052808781526020018673ffffffffffffffffffffffffffffffffffffffff1681526020018581526020013373ffffffffffffffffffffffffffffffffffffffff1681525090806001815401808255809150509060018203906000526020600020906004020160009091929091909150600082015181600001908051906020019061122c929190612c96565b5060208201518160010160006101000a81548173ffffffffffffffffffffffffffffffffffffffff021916908373ffffffffffffffffffffffffffffffffffffffff1602179055506040820151816002015560608201518160030160006101000a81548173ffffffffffffffffffffffffffffffffffffffff021916908373ffffffffffffffffffffffffffffffffffffffff1602179055505050505b5050505050565b6000806112db6119a0565b905060018114156112f05760019150506112f6565b60009150505b90565b6000606080600080600080905060008090505b6004548110156113df573373ffffffffffffffffffffffffffffffffffffffff1660008281548110151561133c57fe5b906000526020600020906004020160010160009054906101000a900473ffffffffffffffffffffffffffffffffffffffff1673ffffffffffffffffffffffffffffffffffffffff1614156113d25760008181548110151561139957fe5b906000526020600020906004020160030160009054906101000a900473ffffffffffffffffffffffffffffffffffffffff1691506113df565b808060010191505061130c565b5060008090505b6007548110156116b5578760028281548110151561140057fe5b90600052602060002090600402016000015414801561148a57508173ffffffffffffffffffffffffffffffffffffffff1660028281548110151561144057fe5b906000526020600020906004020160030160009054906101000a900473ffffffffffffffffffffffffffffffffffffffff1673ffffffffffffffffffffffffffffffffffffffff16145b156116a85760028181548110151561149e57fe5b9060005260206000209060040201600001546002828154811015156114bf57fe5b90600052602060002090600402016001016002838154811015156114df57fe5b90600052602060002090600402016002016002848154811015156114ff57fe5b906000526020600020906004020160030160009054906101000a900473ffffffffffffffffffffffffffffffffffffffff1660028581548110151561154057fe5b906000526020600020906004020160030160149054906101000a900460ff16838054600181600116156101000203166002900480601f0160208091040260200160405190810160405280929190818152602001828054600181600116156101000203166002900480156115f45780601f106115c9576101008083540402835291602001916115f4565b820191906000526020600020905b8154815290600101906020018083116115d757829003601f168201915b50505050509350828054600181600116156101000203166002900480601f0160208091040260200160405190810160405280929190818152602001828054600181600116156101000203166002900480156116905780601f1061166557610100808354040283529160200191611690565b820191906000526020600020905b81548152906001019060200180831161167357829003601f168201915b505050505092509650965096509650965050506116b8565b80806001019150506113e6565b50505b91939590929450565b6000818154811015156116d057fe5b9060005260206000209060040201600091509050806000018054600181600116156101000203166002900480601f01602080910402602001604051908101604052809291908181526020018280546001816001161561010002031660029004801561177c5780601f106117515761010080835404028352916020019161177c565b820191906000526020600020905b81548152906001019060200180831161175f57829003601f168201915b5050505050908060010160009054906101000a900473ffffffffffffffffffffffffffffffffffffffff16908060020154908060030160009054906101000a900473ffffffffffffffffffffffffffffffffffffffff16905084565b60008090506117e56119a0565b905060008090505b6007548110156118c15760018214801561182657508360028281548110151561181257fe5b906000526020600020906004020160000154145b156118b457600160028281548110151561183c57fe5b906000526020600020906004020160030160146101000a81548160ff0219169083151502179055506118af848460028481548110151561187857fe5b906000526020600020906004020160030160009054906101000a900473ffffffffffffffffffffffffffffffffffffffff16612b4c565b6118c1565b80806001019150506117ed565b50505050565b60055481565b60008090505b60055481101561199b57826002828154811015156118ed57fe5b906000526020600020906004020160000154141561198e57600160028281548110151561191657fe5b906000526020600020906004020160030160146101000a81548160ff021916908315150217905550611989838360028481548110151561195257fe5b906000526020600020906004020160030160009054906101000a900473ffffffffffffffffffffffffffffffffffffffff16612b4c565b61199b565b80806001019150506118d3565b505050565b6000806000905060008090505b600454811015611a60573373ffffffffffffffffffffffffffffffffffffffff166000828154811015156119dd57fe5b906000526020600020906004020160010160009054906101000a900473ffffffffffffffffffffffffffffffffffffffff1673ffffffffffffffffffffffffffffffffffffffff161415611a5357600081815481101515611a3a57fe5b9060005260206000209060040201600201549150611a60565b80806001019150506119ad565b508091505090565b600080600080925060008090505b600754811015611abe5784600282815481101515611a9057fe5b9060005260206000209060040201600001541415611ab15760019350611abe565b8080600101915050611a76565b50600160648502019050611ad06119a0565b915060028210158015611ae7575060001515831515145b15611d4257600760008154809291906001019190505550600260a0604051908101604052808681526020018881526020018781526020013373ffffffffffffffffffffffffffffffffffffffff1681526020016000151581525090806001815401808255809150509060018203906000526020600020906004020160009091929091909150600082015181600001556020820151816001019080519060200190611b92929190612c96565b506040820151816002019080519060200190611baf929190612c96565b5060608201518160030160006101000a81548173ffffffffffffffffffffffffffffffffffffffff021916908373ffffffffffffffffffffffffffffffffffffffff16021790555060808201518160030160146101000a81548160ff021916908315150217905550505050600560008154809291906001019190505550600160c06040519081016040528060055481526020018881526020018781526020018681526020018381526020013373ffffffffffffffffffffffffffffffffffffffff1681525090806001815401808255809150509060018203906000526020600020906006020160009091929091909150600082015181600001556020820151816001019080519060200190611cc5929190612c96565b506040820151816002019080519060200190611ce2929190612c96565b50606082015181600301556080820151816004015560a08201518160050160006101000a81548173ffffffffffffffffffffffffffffffffffffffff021916908373ffffffffffffffffffffffffffffffffffffffff1602179055505050505b505050505050565b60065481565b600381815481101515611d5f57fe5b90600052602060002090600402016000915090508060000160009054906101000a900473ffffffffffffffffffffffffffffffffffffffff1690806001015490806002018054600181600116156101000203166002900480601f016020809104026020016040519081016040528092919081815260200182805460018160011615610100020316600290048015611e375780601f10611e0c57610100808354040283529160200191611e37565b820191906000526020600020905b815481529060010190602001808311611e1a57829003601f168201915b5050505050908060030160009054906101000a900473ffffffffffffffffffffffffffffffffffffffff16905084565b600281815481101515611e7657fe5b9060005260206000209060040201600091509050806000015490806001018054600181600116156101000203166002900480601f016020809104026020016040519081016040528092919081815260200182805460018160011615610100020316600290048015611f285780601f10611efd57610100808354040283529160200191611f28565b820191906000526020600020905b815481529060010190602001808311611f0b57829003601f168201915b505050505090806002018054600181600116156101000203166002900480601f016020809104026020016040519081016040528092919081815260200182805460018160011615610100020316600290048015611fc65780601f10611f9b57610100808354040283529160200191611fc6565b820191906000526020600020905b815481529060010190602001808311611fa957829003601f168201915b5050505050908060030160009054906101000a900473ffffffffffffffffffffffffffffffffffffffff16908060030160149054906101000a900460ff16905085565b6000806000806001850190506000935060008090505b600754811015612067578660028281548110151561203957fe5b906000526020600020906004020160000154141561205a5760019450612067565b808060010191505061201f565b506120706119a0565b915060028210158015612081575083155b1561230157600760008154809291906001019190505550600260a0604051908101604052808881526020018a81526020018981526020013373ffffffffffffffffffffffffffffffffffffffff168152602001600015158152509080600181540180825580915050906001820390600052602060002090600402016000909192909190915060008201518160000155602082015181600101908051906020019061212c929190612c96565b506040820151816002019080519060200190612149929190612c96565b5060608201518160030160006101000a81548173ffffffffffffffffffffffffffffffffffffffff021916908373ffffffffffffffffffffffffffffffffffffffff16021790555060808201518160030160146101000a81548160ff0219169083151502179055505050506000600190505b818110156122ff578060648802019350600560008154809291906001019190505550600160c06040519081016040528060055481526020018b81526020018a81526020018981526020018681526020013373ffffffffffffffffffffffffffffffffffffffff1681525090806001815401808255809150509060018203906000526020600020906006020160009091929091909150600082015181600001556020820151816001019080519060200190612276929190612c96565b506040820151816002019080519060200190612293929190612c96565b50606082015181600301556080820151816004015560a08201518160050160006101000a81548173ffffffffffffffffffffffffffffffffffffffff021916908373ffffffffffffffffffffffffffffffffffffffff16021790555050505080806001019150506121bb565b505b5050505050505050565b60006060806000806000806000806000905060008090505b60055481101561263b578a60018281548110151561233d57fe5b906000526020600020906006020160040154141561262e5760018181548110151561236457fe5b906000526020600020906006020160030154925060008090505b6007548110156123fa578360028281548110151561239857fe5b90600052602060002090600402016000015414156123ed576002818154811015156123bf57fe5b906000526020600020906004020160030160149054906101000a900460ff16156123e857600192505b6123fa565b808060010191505061237e565b5060018181548110151561240a57fe5b90600052602060002090600602016000015460018281548110151561242b57fe5b906000526020600020906006020160010160018381548110151561244b57fe5b906000526020600020906006020160020160018481548110151561246b57fe5b90600052602060002090600602016003015460018581548110151561248c57fe5b9060005260206000209060060201600401546001868154811015156124ad57fe5b906000526020600020906006020160050160009054906101000a900473ffffffffffffffffffffffffffffffffffffffff1687858054600181600116156101000203166002900480601f0160208091040260200160405190810160405280929190818152602001828054600181600116156101000203166002900480156125755780601f1061254a57610100808354040283529160200191612575565b820191906000526020600020905b81548152906001019060200180831161255857829003601f168201915b50505050509550848054600181600116156101000203166002900480601f0160208091040260200160405190810160405280929190818152602001828054600181600116156101000203166002900480156126115780601f106125e657610100808354040283529160200191612611565b820191906000526020600020905b8154815290600101906020018083116125f457829003601f168201915b50505050509450995099509950995099509950995050505061263f565b8080600101915050612323565b5050505b919395979092949650565b600060608060008090505b6006548110156129a8578460038281548110151561266f57fe5b9060005260206000209060040201600101541480156126f957503373ffffffffffffffffffffffffffffffffffffffff166003828154811015156126af57fe5b906000526020600020906004020160030160009054906101000a900473ffffffffffffffffffffffffffffffffffffffff1673ffffffffffffffffffffffffffffffffffffffff16145b1561299b5760008090505b6004548110156129955760038281548110151561271d57fe5b906000526020600020906004020160000160009054906101000a900473ffffffffffffffffffffffffffffffffffffffff1673ffffffffffffffffffffffffffffffffffffffff1660008281548110151561277457fe5b906000526020600020906004020160010160009054906101000a900473ffffffffffffffffffffffffffffffffffffffff1673ffffffffffffffffffffffffffffffffffffffff161415612988576003828154811015156127d157fe5b906000526020600020906004020160000160009054906101000a900473ffffffffffffffffffffffffffffffffffffffff1660038381548110151561281257fe5b906000526020600020906004020160020160008381548110151561283257fe5b9060005260206000209060040201600001818054600181600116156101000203166002900480601f0160208091040260200160405190810160405280929190818152602001828054600181600116156101000203166002900480156128d85780601f106128ad576101008083540402835291602001916128d8565b820191906000526020600020905b8154815290600101906020018083116128bb57829003601f168201915b50505050509150808054600181600116156101000203166002900480601f0160208091040260200160405190810160405280929190818152602001828054600181600116156101000203166002900480156129745780601f1061294957610100808354040283529160200191612974565b820191906000526020600020905b81548152906001019060200180831161295757829003601f168201915b5050505050905094509450945050506129aa565b8080600101915050612704565b506129a8565b8080600101915050612655565b505b9193909250565b6001818154811015156129c057fe5b9060005260206000209060060201600091509050806000015490806001018054600181600116156101000203166002900480601f016020809104026020016040519081016040528092919081815260200182805460018160011615610100020316600290048015612a725780601f10612a4757610100808354040283529160200191612a72565b820191906000526020600020905b815481529060010190602001808311612a5557829003601f168201915b505050505090806002018054600181600116156101000203166002900480601f016020809104026020016040519081016040528092919081815260200182805460018160011615610100020316600290048015612b105780601f10612ae557610100808354040283529160200191612b10565b820191906000526020600020905b815481529060010190602001808311612af357829003601f168201915b5050505050908060030154908060040154908060050160009054906101000a900473ffffffffffffffffffffffffffffffffffffffff16905086565b60066000815480929190600101919050555060036080604051908101604052803373ffffffffffffffffffffffffffffffffffffffff1681526020018581526020018481526020018373ffffffffffffffffffffffffffffffffffffffff168152509080600181540180825580915050906001820390600052602060002090600402016000909192909190915060008201518160000160006101000a81548173ffffffffffffffffffffffffffffffffffffffff021916908373ffffffffffffffffffffffffffffffffffffffff160217905550602082015181600101556040820151816002019080519060200190612c46929190612c96565b5060608201518160030160006101000a81548173ffffffffffffffffffffffffffffffffffffffff021916908373ffffffffffffffffffffffffffffffffffffffff160217905550505050505050565b828054600181600116156101000203166002900490600052602060002090601f016020900481019282601f10612cd757805160ff1916838001178555612d05565b82800160010185558215612d05579182015b82811115612d04578251825591602001919060010190612ce9565b5b509050612d129190612d16565b5090565b612d3891905b80821115612d34576000816000905550600101612d1c565b5090565b9056fea165627a7a7230582057831a82c0d94f506a436b69c3ea98f567ac887277ce78026f18515483f982020029",
  "source": "//version with retailers associative array that has uint as key\n\npragma solidity ^0.5.0;\n\ncontract DrugValidation {\n\n  //Model the drug struct\n  struct Drug {\n    uint id;\n    string name;\n    string dosage;\n    uint batchNumber;\n    uint drugNumber;\n    address manufacturerAddress;\n  }\n\n  struct Batch {\n    uint batchNumber;\n    string name;\n    string dosage;\n    address manufacturerAddress;\n    bool recieved;\n  }\n\n  struct Collection {\n    address collectionAddress;\n    uint batchNumber;\n    string timestamp;\n    address manufacturerAddress;\n  }\n\n  struct User {\n    string name;\n    address userAddress;\n    uint accountPriviledge;\n    address addedBy;\n  }\n\n  // Associative arrays\n  User[] public users;\n  Drug[] public drugs;\n  Batch[] public batches;\n  Collection[] public collectionLog;\n\n  //cache counters\n  uint public userCount;\n  uint public drugCount;\n  uint public logCount;\n  uint public batchCount;\n\n  constructor() public {\n    userCount++;\n    users.push(User(\"Owner\", msg.sender, 3, msg.sender));\n  }\n\n  function whichUser() view public returns (uint) {\n    uint level;\n    level = 0;\n\n    for (uint i = 0; i < userCount; i++) {\n      if( users[i].userAddress == msg.sender ){\n       // return users[i].accountPriviledge;\n        level = users[i].accountPriviledge;\n\n        break;\n      }\n    }\n\n    return level;\n\n  }\n\n  //To add the drug data. Expects 3 arguments\n  function addDrug(string memory _name, string memory _dosage, uint _batchNumber) public {\n    bool isDrug;\n    uint level;\n    uint drugNumber;\n    isDrug = false;\n\n    for (uint i = 0; i < batchCount; i++) {\n      if( batches[i].batchNumber == _batchNumber ){\n        isDrug = true;\n        break;\n      }\n    }\n\n    drugNumber = (_batchNumber * 100) + 1;\n\n    level = whichUser();\n\n    if (level >= 2 && isDrug == false) {\n      batchCount++;\n      batches.push(Batch(_batchNumber, _name, _dosage, msg.sender, false));\n      drugCount++; //To increment the drug count by 1 everytime this function is called\n      drugs.push(Drug(drugCount, _name, _dosage, _batchNumber, drugNumber, msg.sender)); //adding the drug data to the array\n    }\n  }\n\n  function addDrugBatch(string memory _name, string memory _dosage, uint _batchNumber, uint _amount) public {\n    bool isDrug;\n    uint drugNumber;\n    uint level;\n    uint amount;\n\n    amount = _amount + 1;\n    isDrug = false;\n    for (uint i = 0; i < batchCount; i++) {\n      if( batches[i].batchNumber == _batchNumber ){\n        isDrug = true;\n        break;\n      }\n    }\n\n    level = whichUser();\n\n    if (level >= 2 && !isDrug) {\n      batchCount++;\n      batches.push(Batch(_batchNumber, _name, _dosage, msg.sender, false));\n\n      for(uint i = 1; i < amount; i++) {\n        drugNumber = (_batchNumber * 100) + i;\n        drugCount++; //To increment the drug count by 1 everytime this function is called\n        drugs.push(Drug(drugCount, _name, _dosage, _batchNumber, drugNumber, msg.sender)); //adding the drug data to the array\n      }\n\n    }\n  }\n\n  function addUser(string memory _name, address _address, uint _level) public {\n    uint isManufacturer;\n    bool isUser;\n    isManufacturer = 0;\n    isUser = false;\n\n    isManufacturer = whichUser();\n\n    for (uint i = 0; i < userCount; i++) {\n      if( users[i].userAddress == _address) {\n        isUser = true;\n        break;\n      }\n    }\n\n    if ( isManufacturer >= 2  && !isUser ) {\n      userCount++;\n      users.push(User(_name, _address, _level, msg.sender));\n    }\n\n  }\n\n  function confirmRetailer() public view returns (bool) {\n    uint level;\n\n    level = whichUser();\n\n    if ( level == 1 ) {\n      return true;\n    } else {\n      return false;\n    }\n  }\n\n  function logCollection(uint _batchNumber, string memory _timestamp, address _manufacturerAddress ) private {\n    logCount++;\n    collectionLog.push(Collection(msg.sender, _batchNumber, _timestamp, _manufacturerAddress));\n  }\n\n  function collectDrug(uint _batchNumber, string memory _timestamp ) public {\n    for (uint i = 0; i < drugCount; i++) {\n      if( batches[i].batchNumber == _batchNumber ){\n        batches[i].recieved = true;\n        logCollection(_batchNumber, _timestamp, batches[i].manufacturerAddress);\n        break;\n      }\n    }\n\n  }\n\n\n\n  function collectDrugBatch(uint _batchNumber, string memory _timestamp ) public {\n    uint isRetailer;\n\n    isRetailer = 0;\n    isRetailer = whichUser();\n\n    for (uint i = 0; i < batchCount; i++) {\n      if( isRetailer == 1 && batches[i].batchNumber == _batchNumber ){\n        batches[i].recieved = true;\n        logCollection(_batchNumber, _timestamp, batches[i].manufacturerAddress);\n        break;\n      }\n    }\n  }\n\n\n  function callLog(uint _batchNumber) public view returns (address, string memory, string memory) {\n    for (uint i = 0; i < logCount; i++){\n      if(collectionLog[i].batchNumber == _batchNumber && collectionLog[i].manufacturerAddress == msg.sender) {\n        for (uint j = 0; j < userCount; j++) {\n          if (users[j].userAddress == collectionLog[i].collectionAddress){\n            return (collectionLog[i].collectionAddress, collectionLog[i].timestamp, users[j].name);\n            break;\n          }\n        }\n        break;\n      }\n    }\n  }\n\n  function checkDrug(uint _drugNumber) public view returns(uint, string memory, string memory, uint, uint, address, bool) {\n    uint _batchNumber;\n    bool _recieved;\n    _recieved = false;\n\n    for (uint i = 0; i < drugCount; i++) {\n      if( drugs[i].drugNumber == _drugNumber ){\n\n        _batchNumber = drugs[i].batchNumber;\n        for (uint j = 0; j < batchCount; j++){\n          if (batches[j].batchNumber == _batchNumber) {\n            if (batches[j].recieved){\n              _recieved = true;\n            }\n\n            break;\n          }\n        }\n\n        return(drugs[i].id, drugs[i].name, drugs[i].dosage, drugs[i].batchNumber, drugs[i].drugNumber, drugs[i].manufacturerAddress, _recieved);\n        break;\n      }\n    }\n  }\n\n  function checkDrugByBatch(uint _batchNumber) public view returns(uint, string memory, string memory, address, bool) {\n\n    address addedBy;\n    addedBy = 0x0000000000000000000000000000000000000000;\n\n    for (uint i = 0; i < userCount; i++) {\n      if( users[i].userAddress == msg.sender ){\n        addedBy = users[i].addedBy;\n        break;\n      }\n    }    \n\n        for (uint i = 0; i < batchCount; i++){\n          if (batches[i].batchNumber == _batchNumber && batches[i].manufacturerAddress == addedBy) {\n            return(batches[i].batchNumber, batches[i].name, batches[i].dosage, batches[i].manufacturerAddress, batches[i].recieved);\n            break;\n          }\n        }\n\n\n      }\n\n//  function allDrugs() view public returns ()\n}\n",
  "sourcePath": "D:/projects/blockchain/drugs-v1.0.0/contracts/DrugValidation.sol",
  "compiler": {
    "name": "solc",
    "version": "0.5.0+commit.1d4f565a.Emscripten.clang"
  },
  "schemaVersion": "3.0.2",
  "updatedAt": "2019-03-31T11:15:56.346Z",
  "devdoc": {
    "methods": {}
  },
  "userdoc": {
    "methods": {}
  }
}