{
  "contractName": "DrugValidation",
  "abi": [
    {
      "constant": true,
      "inputs": [],
      "name": "batchCount",
      "outputs": [
        {
          "name": "",
          "type": "uint256"
        }
      ],
      "payable": false,
      "stateMutability": "view",
      "type": "function",
      "signature": "0x06f13056"
    },
    {
      "constant": true,
      "inputs": [],
      "name": "userCount",
      "outputs": [
        {
          "name": "",
          "type": "uint256"
        }
      ],
      "payable": false,
      "stateMutability": "view",
      "type": "function",
      "signature": "0x07973ccf"
    },
    {
      "constant": true,
      "inputs": [
        {
          "name": "",
          "type": "uint256"
        }
      ],
      "name": "users",
      "outputs": [
        {
          "name": "name",
          "type": "string"
        },
        {
          "name": "userAddress",
          "type": "address"
        },
        {
          "name": "accountPriviledge",
          "type": "uint256"
        }
      ],
      "payable": false,
      "stateMutability": "view",
      "type": "function",
      "signature": "0x365b98b2"
    },
    {
      "constant": true,
      "inputs": [],
      "name": "drugCount",
      "outputs": [
        {
          "name": "",
          "type": "uint256"
        }
      ],
      "payable": false,
      "stateMutability": "view",
      "type": "function",
      "signature": "0x7577ca37"
    },
    {
      "constant": true,
      "inputs": [],
      "name": "logCount",
      "outputs": [
        {
          "name": "",
          "type": "uint256"
        }
      ],
      "payable": false,
      "stateMutability": "view",
      "type": "function",
      "signature": "0xa503898f"
    },
    {
      "constant": true,
      "inputs": [
        {
          "name": "",
          "type": "uint256"
        }
      ],
      "name": "collectionLog",
      "outputs": [
        {
          "name": "collectionAddress",
          "type": "address"
        },
        {
          "name": "batchNumber",
          "type": "uint256"
        },
        {
          "name": "timestamp",
          "type": "string"
        },
        {
          "name": "manufacturerAddress",
          "type": "address"
        }
      ],
      "payable": false,
      "stateMutability": "view",
      "type": "function",
      "signature": "0xa8113fa0"
    },
    {
      "constant": true,
      "inputs": [
        {
          "name": "",
          "type": "uint256"
        }
      ],
      "name": "batches",
      "outputs": [
        {
          "name": "batchNumber",
          "type": "uint256"
        },
        {
          "name": "name",
          "type": "string"
        },
        {
          "name": "dosage",
          "type": "string"
        },
        {
          "name": "manufacturerAddress",
          "type": "address"
        },
        {
          "name": "recieved",
          "type": "bool"
        }
      ],
      "payable": false,
      "stateMutability": "view",
      "type": "function",
      "signature": "0xb32c4d8d"
    },
    {
      "constant": true,
      "inputs": [
        {
          "name": "",
          "type": "uint256"
        }
      ],
      "name": "drugs",
      "outputs": [
        {
          "name": "id",
          "type": "uint256"
        },
        {
          "name": "name",
          "type": "string"
        },
        {
          "name": "dosage",
          "type": "string"
        },
        {
          "name": "batchNumber",
          "type": "uint256"
        },
        {
          "name": "drugNumber",
          "type": "uint256"
        },
        {
          "name": "manufacturerAddress",
          "type": "address"
        }
      ],
      "payable": false,
      "stateMutability": "view",
      "type": "function",
      "signature": "0xfca5e61e"
    },
    {
      "inputs": [],
      "payable": false,
      "stateMutability": "nonpayable",
      "type": "constructor",
      "signature": "constructor"
    },
    {
      "constant": true,
      "inputs": [],
      "name": "whichUser",
      "outputs": [
        {
          "name": "",
          "type": "uint256"
        }
      ],
      "payable": false,
      "stateMutability": "view",
      "type": "function",
      "signature": "0x8c5ff28e"
    },
    {
      "constant": false,
      "inputs": [
        {
          "name": "_name",
          "type": "string"
        },
        {
          "name": "_dosage",
          "type": "string"
        },
        {
          "name": "_batchNumber",
          "type": "uint256"
        }
      ],
      "name": "addDrug",
      "outputs": [],
      "payable": false,
      "stateMutability": "nonpayable",
      "type": "function",
      "signature": "0x91c4fb82"
    },
    {
      "constant": false,
      "inputs": [
        {
          "name": "_name",
          "type": "string"
        },
        {
          "name": "_dosage",
          "type": "string"
        },
        {
          "name": "_batchNumber",
          "type": "uint256"
        },
        {
          "name": "_amount",
          "type": "uint256"
        }
      ],
      "name": "addDrugBatch",
      "outputs": [],
      "payable": false,
      "stateMutability": "nonpayable",
      "type": "function",
      "signature": "0xd457cf1d"
    },
    {
      "constant": false,
      "inputs": [
        {
          "name": "_name",
          "type": "string"
        },
        {
          "name": "_address",
          "type": "address"
        },
        {
          "name": "_level",
          "type": "uint256"
        }
      ],
      "name": "addUser",
      "outputs": [],
      "payable": false,
      "stateMutability": "nonpayable",
      "type": "function",
      "signature": "0x0ce98442"
    },
    {
      "constant": true,
      "inputs": [],
      "name": "confirmRetailer",
      "outputs": [
        {
          "name": "",
          "type": "bool"
        }
      ],
      "payable": false,
      "stateMutability": "view",
      "type": "function",
      "signature": "0x102f7eb7"
    },
    {
      "constant": false,
      "inputs": [
        {
          "name": "_batchNumber",
          "type": "uint256"
        },
        {
          "name": "_timestamp",
          "type": "string"
        }
      ],
      "name": "collectDrug",
      "outputs": [
        {
          "name": "",
          "type": "bool"
        }
      ],
      "payable": false,
      "stateMutability": "nonpayable",
      "type": "function",
      "signature": "0x82a2a9e2"
    },
    {
      "constant": false,
      "inputs": [
        {
          "name": "_batchNumber",
          "type": "uint256"
        },
        {
          "name": "_timestamp",
          "type": "string"
        }
      ],
      "name": "collectDrugBatch",
      "outputs": [
        {
          "name": "",
          "type": "bool"
        }
      ],
      "payable": false,
      "stateMutability": "nonpayable",
      "type": "function",
      "signature": "0x3c0ccd1d"
    },
    {
      "constant": true,
      "inputs": [
        {
          "name": "_batchNumber",
          "type": "uint256"
        }
      ],
      "name": "callLog",
      "outputs": [
        {
          "name": "",
          "type": "address"
        },
        {
          "name": "",
          "type": "string"
        },
        {
          "name": "",
          "type": "string"
        }
      ],
      "payable": false,
      "stateMutability": "view",
      "type": "function",
      "signature": "0xeadbe66b"
    },
    {
      "constant": true,
      "inputs": [
        {
          "name": "_drugNumber",
          "type": "uint256"
        }
      ],
      "name": "checkDrug",
      "outputs": [
        {
          "name": "",
          "type": "uint256"
        },
        {
          "name": "",
          "type": "string"
        },
        {
          "name": "",
          "type": "string"
        },
        {
          "name": "",
          "type": "uint256"
        },
        {
          "name": "",
          "type": "uint256"
        },
        {
          "name": "",
          "type": "address"
        },
        {
          "name": "",
          "type": "bool"
        }
      ],
      "payable": false,
      "stateMutability": "view",
      "type": "function",
      "signature": "0xe15adabd"
    },
    {
      "constant": true,
      "inputs": [
        {
          "name": "_batchNumber",
          "type": "uint256"
        }
      ],
      "name": "checkDrugByBatch",
      "outputs": [
        {
          "name": "",
          "type": "uint256"
        },
        {
          "name": "",
          "type": "string"
        },
        {
          "name": "",
          "type": "string"
        },
        {
          "name": "",
          "type": "address"
        },
        {
          "name": "",
          "type": "bool"
        }
      ],
      "payable": false,
      "stateMutability": "view",
      "type": "function",
      "signature": "0x1a404e87"
    }
  ],
  "bytecode": "0x60806040523480156200001157600080fd5b5060046000815480929190600101919050555060006060604051908101604052806040805190810160405280600581526020017f4f776e657200000000000000000000000000000000000000000000000000000081525081526020013373ffffffffffffffffffffffffffffffffffffffff1681526020016003815250908060018154018082558091505090600182039060005260206000209060030201600090919290919091506000820151816000019080519060200190620000d792919062000132565b5060208201518160010160006101000a81548173ffffffffffffffffffffffffffffffffffffffff021916908373ffffffffffffffffffffffffffffffffffffffff16021790555060408201518160020155505050620001e1565b828054600181600116156101000203166002900490600052602060002090601f016020900481019282601f106200017557805160ff1916838001178555620001a6565b82800160010185558215620001a6579182015b82811115620001a557825182559160200191906001019062000188565b5b509050620001b59190620001b9565b5090565b620001de91905b80821115620001da576000816000905550600101620001c0565b5090565b90565b612c3580620001f16000396000f3fe6080604052600436106100fc576000357c0100000000000000000000000000000000000000000000000000000000900463ffffffff16806306f130561461010157806307973ccf1461012c5780630ce9844214610157578063102f7eb7146102495780631a404e8714610278578063365b98b2146103dd5780633c0ccd1d146104cb5780637577ca37146105b557806382a2a9e2146105e05780638c5ff28e146106ca57806391c4fb82146106f5578063a503898f1461085e578063a8113fa014610889578063b32c4d8d146109aa578063d457cf1d14610b0f578063e15adabd14610c82578063eadbe66b14610df5578063fca5e61e14610f48575b600080fd5b34801561010d57600080fd5b506101166110b0565b6040518082815260200191505060405180910390f35b34801561013857600080fd5b506101416110b6565b6040518082815260200191505060405180910390f35b34801561016357600080fd5b506102476004803603606081101561017a57600080fd5b810190808035906020019064010000000081111561019757600080fd5b8201836020820111156101a957600080fd5b803590602001918460018302840111640100000000831117156101cb57600080fd5b91908080601f016020809104026020016040519081016040528093929190818152602001838380828437600081840152601f19601f820116905080830192505050505050509192919290803573ffffffffffffffffffffffffffffffffffffffff169060200190929190803590602001909291905050506110bc565b005b34801561025557600080fd5b5061025e611324565b604051808215151515815260200191505060405180910390f35b34801561028457600080fd5b506102b16004803603602081101561029b57600080fd5b810190808035906020019092919050505061134d565b6040518086815260200180602001806020018573ffffffffffffffffffffffffffffffffffffffff1673ffffffffffffffffffffffffffffffffffffffff16815260200184151515158152602001838103835287818151815260200191508051906020019080838360005b8381101561033757808201518184015260208101905061031c565b50505050905090810190601f1680156103645780820380516001836020036101000a031916815260200191505b50838103825286818151815260200191508051906020019080838360005b8381101561039d578082015181840152602081019050610382565b50505050905090810190601f1680156103ca5780820380516001836020036101000a031916815260200191505b5097505050505050505060405180910390f35b3480156103e957600080fd5b506104166004803603602081101561040057600080fd5b81019080803590602001909291905050506115bd565b60405180806020018473ffffffffffffffffffffffffffffffffffffffff1673ffffffffffffffffffffffffffffffffffffffff168152602001838152602001828103825285818151815260200191508051906020019080838360005b8381101561048e578082015181840152602081019050610473565b50505050905090810190601f1680156104bb5780820380516001836020036101000a031916815260200191505b5094505050505060405180910390f35b3480156104d757600080fd5b5061059b600480360360408110156104ee57600080fd5b81019080803590602001909291908035906020019064010000000081111561051557600080fd5b82018360208201111561052757600080fd5b8035906020019184600183028401116401000000008311171561054957600080fd5b91908080601f016020809104026020016040519081016040528093929190818152602001838380828437600081840152601f19601f8201169050808301925050505050505091929192905050506116ae565b604051808215151515815260200191505060405180910390f35b3480156105c157600080fd5b506105ca61178b565b6040518082815260200191505060405180910390f35b3480156105ec57600080fd5b506106b06004803603604081101561060357600080fd5b81019080803590602001909291908035906020019064010000000081111561062a57600080fd5b82018360208201111561063c57600080fd5b8035906020019184600183028401116401000000008311171561065e57600080fd5b91908080601f016020809104026020016040519081016040528093929190818152602001838380828437600081840152601f19601f820116905080830192505050505050509192919290505050611791565b604051808215151515815260200191505060405180910390f35b3480156106d657600080fd5b506106df61186e565b6040518082815260200191505060405180910390f35b34801561070157600080fd5b5061085c6004803603606081101561071857600080fd5b810190808035906020019064010000000081111561073557600080fd5b82018360208201111561074757600080fd5b8035906020019184600183028401116401000000008311171561076957600080fd5b91908080601f016020809104026020016040519081016040528093929190818152602001838380828437600081840152601f19601f820116905080830192505050505050509192919290803590602001906401000000008111156107cc57600080fd5b8201836020820111156107de57600080fd5b8035906020019184600183028401116401000000008311171561080057600080fd5b91908080601f016020809104026020016040519081016040528093929190818152602001838380828437600081840152601f19601f82011690508083019250505050505050919291929080359060200190929190505050611936565b005b34801561086a57600080fd5b50610873611c18565b6040518082815260200191505060405180910390f35b34801561089557600080fd5b506108c2600480360360208110156108ac57600080fd5b8101908080359060200190929190505050611c1e565b604051808573ffffffffffffffffffffffffffffffffffffffff1673ffffffffffffffffffffffffffffffffffffffff168152602001848152602001806020018373ffffffffffffffffffffffffffffffffffffffff1673ffffffffffffffffffffffffffffffffffffffff168152602001828103825284818151815260200191508051906020019080838360005b8381101561096c578082015181840152602081019050610951565b50505050905090810190601f1680156109995780820380516001836020036101000a031916815260200191505b509550505050505060405180910390f35b3480156109b657600080fd5b506109e3600480360360208110156109cd57600080fd5b8101908080359060200190929190505050611d35565b6040518086815260200180602001806020018573ffffffffffffffffffffffffffffffffffffffff1673ffffffffffffffffffffffffffffffffffffffff16815260200184151515158152602001838103835287818151815260200191508051906020019080838360005b83811015610a69578082015181840152602081019050610a4e565b50505050905090810190601f168015610a965780820380516001836020036101000a031916815260200191505b50838103825286818151815260200191508051906020019080838360005b83811015610acf578082015181840152602081019050610ab4565b50505050905090810190601f168015610afc5780820380516001836020036101000a031916815260200191505b5097505050505050505060405180910390f35b348015610b1b57600080fd5b50610c8060048036036080811015610b3257600080fd5b8101908080359060200190640100000000811115610b4f57600080fd5b820183602082011115610b6157600080fd5b80359060200191846001830284011164010000000083111715610b8357600080fd5b91908080601f016020809104026020016040519081016040528093929190818152602001838380828437600081840152601f19601f82011690508083019250505050505050919291929080359060200190640100000000811115610be657600080fd5b820183602082011115610bf857600080fd5b80359060200191846001830284011164010000000083111715610c1a57600080fd5b91908080601f016020809104026020016040519081016040528093929190818152602001838380828437600081840152601f19601f8201169050808301925050505050505091929192908035906020019092919080359060200190929190505050611ed7565b005b348015610c8e57600080fd5b50610cbb60048036036020811015610ca557600080fd5b81019080803590602001909291905050506121d9565b6040518088815260200180602001806020018781526020018681526020018573ffffffffffffffffffffffffffffffffffffffff1673ffffffffffffffffffffffffffffffffffffffff16815260200184151515158152602001838103835289818151815260200191508051906020019080838360005b83811015610d4d578082015181840152602081019050610d32565b50505050905090810190601f168015610d7a5780820380516001836020036101000a031916815260200191505b50838103825288818151815260200191508051906020019080838360005b83811015610db3578082015181840152602081019050610d98565b50505050905090810190601f168015610de05780820380516001836020036101000a031916815260200191505b50995050505050505050505060405180910390f35b348015610e0157600080fd5b50610e2e60048036036020811015610e1857600080fd5b8101908080359060200190929190505050612518565b604051808473ffffffffffffffffffffffffffffffffffffffff1673ffffffffffffffffffffffffffffffffffffffff1681526020018060200180602001838103835285818151815260200191508051906020019080838360005b83811015610ea4578082015181840152602081019050610e89565b50505050905090810190601f168015610ed15780820380516001836020036101000a031916815260200191505b50838103825284818151815260200191508051906020019080838360005b83811015610f0a578082015181840152602081019050610eef565b50505050905090810190601f168015610f375780820380516001836020036101000a031916815260200191505b509550505050505060405180910390f35b348015610f5457600080fd5b50610f8160048036036020811015610f6b57600080fd5b810190808035906020019092919050505061287f565b6040518087815260200180602001806020018681526020018581526020018473ffffffffffffffffffffffffffffffffffffffff1673ffffffffffffffffffffffffffffffffffffffff168152602001838103835288818151815260200191508051906020019080838360005b83811015611009578082015181840152602081019050610fee565b50505050905090810190601f1680156110365780820380516001836020036101000a031916815260200191505b50838103825287818151815260200191508051906020019080838360005b8381101561106f578082015181840152602081019050611054565b50505050905090810190601f16801561109c5780820380516001836020036101000a031916815260200191505b509850505050505050505060405180910390f35b60075481565b60045481565b600080600091506000905060008090505b600454811015611229573373ffffffffffffffffffffffffffffffffffffffff166000828154811015156110fd57fe5b906000526020600020906003020160010160009054906101000a900473ffffffffffffffffffffffffffffffffffffffff1673ffffffffffffffffffffffffffffffffffffffff161480156111735750600260008281548110151561115e57fe5b90600052602060002090600302016002015410155b1561121c576001925060008090505b600454811015611216578573ffffffffffffffffffffffffffffffffffffffff166000828154811015156111b257fe5b906000526020600020906003020160010160009054906101000a900473ffffffffffffffffffffffffffffffffffffffff1673ffffffffffffffffffffffffffffffffffffffff1614156112095760019250611216565b8080600101915050611182565b50611229565b80806001019150506110cd565b50818015611235575080155b1561131d5760046000815480929190600101919050555060006060604051908101604052808781526020018673ffffffffffffffffffffffffffffffffffffffff168152602001858152509080600181540180825580915050906001820390600052602060002090600302016000909192909190915060008201518160000190805190602001906112c7929190612b64565b5060208201518160010160006101000a81548173ffffffffffffffffffffffffffffffffffffffff021916908373ffffffffffffffffffffffffffffffffffffffff160217905550604082015181600201555050505b5050505050565b60008061132f61186e565b9050600181141561134457600191505061134a565b60009150505b90565b600060608060008060008090505b6007548110156115b2578660028281548110151561137557fe5b90600052602060002090600402016000015414156115a55760028181548110151561139c57fe5b9060005260206000209060040201600001546002828154811015156113bd57fe5b90600052602060002090600402016001016002838154811015156113dd57fe5b90600052602060002090600402016002016002848154811015156113fd57fe5b906000526020600020906004020160030160009054906101000a900473ffffffffffffffffffffffffffffffffffffffff1660028581548110151561143e57fe5b906000526020600020906004020160030160149054906101000a900460ff16838054600181600116156101000203166002900480601f0160208091040260200160405190810160405280929190818152602001828054600181600116156101000203166002900480156114f25780601f106114c7576101008083540402835291602001916114f2565b820191906000526020600020905b8154815290600101906020018083116114d557829003601f168201915b50505050509350828054600181600116156101000203166002900480601f01602080910402602001604051908101604052809291908181526020018280546001816001161561010002031660029004801561158e5780601f106115635761010080835404028352916020019161158e565b820191906000526020600020905b81548152906001019060200180831161157157829003601f168201915b5050505050925095509550955095509550506115b4565b808060010191505061135b565b505b91939590929450565b6000818154811015156115cc57fe5b9060005260206000209060030201600091509050806000018054600181600116156101000203166002900480601f0160208091040260200160405190810160405280929190818152602001828054600181600116156101000203166002900480156116785780601f1061164d57610100808354040283529160200191611678565b820191906000526020600020905b81548152906001019060200180831161165b57829003601f168201915b5050505050908060010160009054906101000a900473ffffffffffffffffffffffffffffffffffffffff16908060020154905083565b600080600090505b60075481101561178357836002828154811015156116d057fe5b90600052602060002090600402016000015414156117765760016002828154811015156116f957fe5b906000526020600020906004020160030160146101000a81548160ff02191690831515021790555061176c848460028481548110151561173557fe5b906000526020600020906004020160030160009054906101000a900473ffffffffffffffffffffffffffffffffffffffff16612a1a565b6001915050611785565b80806001019150506116b6565b505b92915050565b60055481565b600080600090505b60055481101561186657836002828154811015156117b357fe5b90600052602060002090600402016000015414156118595760016002828154811015156117dc57fe5b906000526020600020906004020160030160146101000a81548160ff02191690831515021790555061184f848460028481548110151561181857fe5b906000526020600020906004020160030160009054906101000a900473ffffffffffffffffffffffffffffffffffffffff16612a1a565b6001915050611868565b8080600101915050611799565b505b92915050565b6000806000905060008090505b60045481101561192e573373ffffffffffffffffffffffffffffffffffffffff166000828154811015156118ab57fe5b906000526020600020906003020160010160009054906101000a900473ffffffffffffffffffffffffffffffffffffffff1673ffffffffffffffffffffffffffffffffffffffff1614156119215760008181548110151561190857fe5b906000526020600020906003020160020154915061192e565b808060010191505061187b565b508091505090565b600080600080925060008090505b60075481101561198c578460028281548110151561195e57fe5b906000526020600020906004020160000154141561197f576001935061198c565b8080600101915050611944565b5060016064850201905061199e61186e565b9150600282101580156119b5575060001515831515145b15611c1057600760008154809291906001019190505550600260a0604051908101604052808681526020018881526020018781526020013373ffffffffffffffffffffffffffffffffffffffff1681526020016000151581525090806001815401808255809150509060018203906000526020600020906004020160009091929091909150600082015181600001556020820151816001019080519060200190611a60929190612b64565b506040820151816002019080519060200190611a7d929190612b64565b5060608201518160030160006101000a81548173ffffffffffffffffffffffffffffffffffffffff021916908373ffffffffffffffffffffffffffffffffffffffff16021790555060808201518160030160146101000a81548160ff021916908315150217905550505050600560008154809291906001019190505550600160c06040519081016040528060055481526020018881526020018781526020018681526020018381526020013373ffffffffffffffffffffffffffffffffffffffff1681525090806001815401808255809150509060018203906000526020600020906006020160009091929091909150600082015181600001556020820151816001019080519060200190611b93929190612b64565b506040820151816002019080519060200190611bb0929190612b64565b50606082015181600301556080820151816004015560a08201518160050160006101000a81548173ffffffffffffffffffffffffffffffffffffffff021916908373ffffffffffffffffffffffffffffffffffffffff1602179055505050505b505050505050565b60065481565b600381815481101515611c2d57fe5b90600052602060002090600402016000915090508060000160009054906101000a900473ffffffffffffffffffffffffffffffffffffffff1690806001015490806002018054600181600116156101000203166002900480601f016020809104026020016040519081016040528092919081815260200182805460018160011615610100020316600290048015611d055780601f10611cda57610100808354040283529160200191611d05565b820191906000526020600020905b815481529060010190602001808311611ce857829003601f168201915b5050505050908060030160009054906101000a900473ffffffffffffffffffffffffffffffffffffffff16905084565b600281815481101515611d4457fe5b9060005260206000209060040201600091509050806000015490806001018054600181600116156101000203166002900480601f016020809104026020016040519081016040528092919081815260200182805460018160011615610100020316600290048015611df65780601f10611dcb57610100808354040283529160200191611df6565b820191906000526020600020905b815481529060010190602001808311611dd957829003601f168201915b505050505090806002018054600181600116156101000203166002900480601f016020809104026020016040519081016040528092919081815260200182805460018160011615610100020316600290048015611e945780601f10611e6957610100808354040283529160200191611e94565b820191906000526020600020905b815481529060010190602001808311611e7757829003601f168201915b5050505050908060030160009054906101000a900473ffffffffffffffffffffffffffffffffffffffff16908060030160149054906101000a900460ff16905085565b6000806000806001850190506000935060008090505b600754811015611f355786600282815481101515611f0757fe5b9060005260206000209060040201600001541415611f285760019450611f35565b8080600101915050611eed565b50611f3e61186e565b915060028210158015611f4f575083155b156121cf57600760008154809291906001019190505550600260a0604051908101604052808881526020018a81526020018981526020013373ffffffffffffffffffffffffffffffffffffffff1681526020016000151581525090806001815401808255809150509060018203906000526020600020906004020160009091929091909150600082015181600001556020820151816001019080519060200190611ffa929190612b64565b506040820151816002019080519060200190612017929190612b64565b5060608201518160030160006101000a81548173ffffffffffffffffffffffffffffffffffffffff021916908373ffffffffffffffffffffffffffffffffffffffff16021790555060808201518160030160146101000a81548160ff0219169083151502179055505050506000600190505b818110156121cd578060648802019350600560008154809291906001019190505550600160c06040519081016040528060055481526020018b81526020018a81526020018981526020018681526020013373ffffffffffffffffffffffffffffffffffffffff1681525090806001815401808255809150509060018203906000526020600020906006020160009091929091909150600082015181600001556020820151816001019080519060200190612144929190612b64565b506040820151816002019080519060200190612161929190612b64565b50606082015181600301556080820151816004015560a08201518160050160006101000a81548173ffffffffffffffffffffffffffffffffffffffff021916908373ffffffffffffffffffffffffffffffffffffffff1602179055505050508080600101915050612089565b505b5050505050505050565b60006060806000806000806000806000905060008090505b600554811015612509578a60018281548110151561220b57fe5b90600052602060002090600602016004015414156124fc5760018181548110151561223257fe5b906000526020600020906006020160030154925060008090505b6007548110156122c8578360028281548110151561226657fe5b90600052602060002090600402016000015414156122bb5760028181548110151561228d57fe5b906000526020600020906004020160030160149054906101000a900460ff16156122b657600192505b6122c8565b808060010191505061224c565b506001818154811015156122d857fe5b9060005260206000209060060201600001546001828154811015156122f957fe5b906000526020600020906006020160010160018381548110151561231957fe5b906000526020600020906006020160020160018481548110151561233957fe5b90600052602060002090600602016003015460018581548110151561235a57fe5b90600052602060002090600602016004015460018681548110151561237b57fe5b906000526020600020906006020160050160009054906101000a900473ffffffffffffffffffffffffffffffffffffffff1687858054600181600116156101000203166002900480601f0160208091040260200160405190810160405280929190818152602001828054600181600116156101000203166002900480156124435780601f1061241857610100808354040283529160200191612443565b820191906000526020600020905b81548152906001019060200180831161242657829003601f168201915b50505050509550848054600181600116156101000203166002900480601f0160208091040260200160405190810160405280929190818152602001828054600181600116156101000203166002900480156124df5780601f106124b4576101008083540402835291602001916124df565b820191906000526020600020905b8154815290600101906020018083116124c257829003601f168201915b50505050509450995099509950995099509950995050505061250d565b80806001019150506121f1565b5050505b919395979092949650565b600060608060008090505b600654811015612876578460038281548110151561253d57fe5b9060005260206000209060040201600101541480156125c757503373ffffffffffffffffffffffffffffffffffffffff1660038281548110151561257d57fe5b906000526020600020906004020160030160009054906101000a900473ffffffffffffffffffffffffffffffffffffffff1673ffffffffffffffffffffffffffffffffffffffff16145b156128695760008090505b600454811015612863576003828154811015156125eb57fe5b906000526020600020906004020160000160009054906101000a900473ffffffffffffffffffffffffffffffffffffffff1673ffffffffffffffffffffffffffffffffffffffff1660008281548110151561264257fe5b906000526020600020906003020160010160009054906101000a900473ffffffffffffffffffffffffffffffffffffffff1673ffffffffffffffffffffffffffffffffffffffff1614156128565760038281548110151561269f57fe5b906000526020600020906004020160000160009054906101000a900473ffffffffffffffffffffffffffffffffffffffff166003838154811015156126e057fe5b906000526020600020906004020160020160008381548110151561270057fe5b9060005260206000209060030201600001818054600181600116156101000203166002900480601f0160208091040260200160405190810160405280929190818152602001828054600181600116156101000203166002900480156127a65780601f1061277b576101008083540402835291602001916127a6565b820191906000526020600020905b81548152906001019060200180831161278957829003601f168201915b50505050509150808054600181600116156101000203166002900480601f0160208091040260200160405190810160405280929190818152602001828054600181600116156101000203166002900480156128425780601f1061281757610100808354040283529160200191612842565b820191906000526020600020905b81548152906001019060200180831161282557829003601f168201915b505050505090509450945094505050612878565b80806001019150506125d2565b50612876565b8080600101915050612523565b505b9193909250565b60018181548110151561288e57fe5b9060005260206000209060060201600091509050806000015490806001018054600181600116156101000203166002900480601f0160208091040260200160405190810160405280929190818152602001828054600181600116156101000203166002900480156129405780601f1061291557610100808354040283529160200191612940565b820191906000526020600020905b81548152906001019060200180831161292357829003601f168201915b505050505090806002018054600181600116156101000203166002900480601f0160208091040260200160405190810160405280929190818152602001828054600181600116156101000203166002900480156129de5780601f106129b3576101008083540402835291602001916129de565b820191906000526020600020905b8154815290600101906020018083116129c157829003601f168201915b5050505050908060030154908060040154908060050160009054906101000a900473ffffffffffffffffffffffffffffffffffffffff16905086565b60066000815480929190600101919050555060036080604051908101604052803373ffffffffffffffffffffffffffffffffffffffff1681526020018581526020018481526020018373ffffffffffffffffffffffffffffffffffffffff168152509080600181540180825580915050906001820390600052602060002090600402016000909192909190915060008201518160000160006101000a81548173ffffffffffffffffffffffffffffffffffffffff021916908373ffffffffffffffffffffffffffffffffffffffff160217905550602082015181600101556040820151816002019080519060200190612b14929190612b64565b5060608201518160030160006101000a81548173ffffffffffffffffffffffffffffffffffffffff021916908373ffffffffffffffffffffffffffffffffffffffff160217905550505050505050565b828054600181600116156101000203166002900490600052602060002090601f016020900481019282601f10612ba557805160ff1916838001178555612bd3565b82800160010185558215612bd3579182015b82811115612bd2578251825591602001919060010190612bb7565b5b509050612be09190612be4565b5090565b612c0691905b80821115612c02576000816000905550600101612bea565b5090565b9056fea165627a7a723058201a55228f500cfc1f1611813d7cf6c5e56a1f587c26b63cd7dc5d08c8327a78210029",
  "source": "//version with retailers associative array that has uint as key\n\npragma solidity ^0.5.0;\n\ncontract DrugValidation {\n\n  //Model the drug struct\n  struct Drug {\n    uint id;\n    string name;\n    string dosage;\n    uint batchNumber;\n    uint drugNumber;\n    address manufacturerAddress;\n  }\n\n  struct Batch {\n    uint batchNumber;\n    string name;\n    string dosage;\n    address manufacturerAddress;\n    bool recieved;\n  }\n\n  struct Collection {\n    address collectionAddress;\n    uint batchNumber;\n    string timestamp;\n    address manufacturerAddress;\n  }\n\n  struct User {\n    string name;\n    address userAddress;\n    uint accountPriviledge;\n  }\n\n  // Associative arrays\n  User[] public users;\n  Drug[] public drugs;\n  Batch[] public batches;\n  Collection[] public collectionLog;\n\n  //cache counters\n  uint public userCount;\n  uint public drugCount;\n  uint public logCount;\n  uint public batchCount;\n\n  constructor() public {\n    userCount++;\n    users.push(User(\"Owner\", msg.sender, 3));\n  }\n\n  function whichUser() view public returns (uint) {\n    uint level;\n    level = 0;\n\n    for (uint i = 0; i < userCount; i++) {\n      if( users[i].userAddress == msg.sender ){\n       // return users[i].accountPriviledge;\n        level = users[i].accountPriviledge;\n\n        break;\n      } \n    }\n    \n    return level;\n\n  }\n\n  //To add the drug data. Expects 3 arguments\n  function addDrug(string memory _name, string memory _dosage, uint _batchNumber) public {\n    bool isDrug;\n    uint level;\n    uint drugNumber;\n    isDrug = false;\n\n    for (uint i = 0; i < batchCount; i++) {\n      if( batches[i].batchNumber == _batchNumber ){\n        isDrug = true;\n        break;\n      }\n    }\n\n    drugNumber = (_batchNumber * 100) + 1;\n\n    level = whichUser();\n\n    if (level >= 2 && isDrug == false) {\n      batchCount++;\n      batches.push(Batch(_batchNumber, _name, _dosage, msg.sender, false));\n      drugCount++; //To increment the drug count by 1 everytime this function is called\n      drugs.push(Drug(drugCount, _name, _dosage, _batchNumber, drugNumber, msg.sender)); //adding the drug data to the array\n    }\n  }\n\n  function addDrugBatch(string memory _name, string memory _dosage, uint _batchNumber, uint _amount) public {\n    bool isDrug;\n    uint drugNumber;\n    uint level;\n    uint amount;\n\n    amount = _amount + 1;\n    isDrug = false;\n    for (uint i = 0; i < batchCount; i++) {\n      if( batches[i].batchNumber == _batchNumber ){\n        isDrug = true;\n        break;\n      }\n    }\n\n    level = whichUser();\n\n    if (level >= 2 && !isDrug) {\n      batchCount++;\n      batches.push(Batch(_batchNumber, _name, _dosage, msg.sender, false));\n\n      for(uint i = 1; i < amount; i++) {\n        drugNumber = (_batchNumber * 100) + i;\n        drugCount++; //To increment the drug count by 1 everytime this function is called\n        drugs.push(Drug(drugCount, _name, _dosage, _batchNumber, drugNumber, msg.sender)); //adding the drug data to the array\n      }\n\n    }\n  }\n\n  function addUser(string memory _name, address _address, uint _level) public {\n    bool isManufacturer;\n    bool isUser;\n    isManufacturer = false;\n    isUser = false;\n\n    for (uint i = 0; i < userCount; i++) {\n\n      if( users[i].userAddress == msg.sender && users[i].accountPriviledge >= 2 ){\n\n        isManufacturer = true;\n\n        for (uint j = 0; j < userCount; j++) {\n\n          if( users[j].userAddress == _address) {\n            isUser = true;\n            break;\n          }\n\n        }\n\n        break;\n\n      }\n    }\n\n    if ( isManufacturer && !isUser ) {\n      userCount++;\n      users.push(User(_name, _address, _level));\n    }\n\n  }\n\n  function confirmRetailer() public view returns (bool) {\n    uint level;\n\n    level = whichUser();\n\n    if ( level == 1 ) {\n      return true;\n    } else {\n      return false;\n    }\n  }\n\n  function logCollection(uint _batchNumber, string memory _timestamp, address _manufacturerAddress ) private {\n    logCount++;\n    collectionLog.push(Collection(msg.sender, _batchNumber, _timestamp, _manufacturerAddress));\n  }\n\n  function collectDrug(uint _batchNumber, string memory _timestamp ) public returns (bool) {\n\n    for (uint i = 0; i < drugCount; i++) {\n      if( batches[i].batchNumber == _batchNumber ){\n        batches[i].recieved = true;\n        logCollection(_batchNumber, _timestamp, batches[i].manufacturerAddress);\n        return true;\n        break;\n      }\n    }\n\n  }\n\n\n\n  function collectDrugBatch(uint _batchNumber, string memory _timestamp ) public returns (bool) {\n    for (uint i = 0; i < batchCount; i++) {\n      if( batches[i].batchNumber == _batchNumber ){\n        batches[i].recieved = true;\n        logCollection(_batchNumber, _timestamp, batches[i].manufacturerAddress);\n        return true;\n        break;\n      }\n    }\n  }\n\n\n  function callLog(uint _batchNumber) public view returns (address, string memory, string memory) {\n    for (uint i = 0; i < logCount; i++){\n      if(collectionLog[i].batchNumber == _batchNumber && collectionLog[i].manufacturerAddress == msg.sender) {\n        for (uint j = 0; j < userCount; j++) {\n          if (users[j].userAddress == collectionLog[i].collectionAddress){\n            return (collectionLog[i].collectionAddress, collectionLog[i].timestamp, users[j].name);\n            break;\n          }\n        }\n        break;\n      }\n    }\n  }\n\n  function checkDrug(uint _drugNumber) public view returns(uint, string memory, string memory, uint, uint, address, bool) {\n    uint _batchNumber;\n    bool _recieved;\n    _recieved = false;\n\n    for (uint i = 0; i < drugCount; i++) {\n      if( drugs[i].drugNumber == _drugNumber ){\n\n        _batchNumber = drugs[i].batchNumber;\n        for (uint j = 0; j < batchCount; j++){\n          if (batches[j].batchNumber == _batchNumber) {\n            if (batches[j].recieved){\n              _recieved = true;\n            }\n\n            break;\n          }\n        }\n\n        return(drugs[i].id, drugs[i].name, drugs[i].dosage, drugs[i].batchNumber, drugs[i].drugNumber, drugs[i].manufacturerAddress, _recieved);\n        break;\n      }\n    }\n  }\n\n  function checkDrugByBatch(uint _batchNumber) public view returns(uint, string memory, string memory, address, bool) {\n\n        for (uint i = 0; i < batchCount; i++){\n          if (batches[i].batchNumber == _batchNumber) {\n            return(batches[i].batchNumber, batches[i].name, batches[i].dosage,  batches[i].manufacturerAddress, batches[i].recieved);\n            break;\n          }\n        }\n\n\n      }\n\n//  function allDrugs() view public returns ()\n}\n",
  "sourcePath": "D:/projects/blockchain/drugs/contracts/DrugValidation.sol",
  "compiler": {
    "name": "solc",
    "version": "0.5.0+commit.1d4f565a.Emscripten.clang"
  },
  "schemaVersion": "3.0.2",
  "updatedAt": "2019-03-14T08:03:58.345Z",
  "devdoc": {
    "methods": {}
  },
  "userdoc": {
    "methods": {}
  }
}